{
  "_format": "hh-sol-artifact-1",
  "contractName": "DiceGame",
  "sourceName": "contracts/DiceGame.sol",
  "abi": [
    {
      "inputs": [
        {
          "internalType": "address",
          "name": "_vrfCoordinator",
          "type": "address"
        },
        {
          "internalType": "address",
          "name": "_gameToken",
          "type": "address"
        },
        {
          "internalType": "bytes32",
          "name": "_keyHash",
          "type": "bytes32"
        },
        {
          "internalType": "uint64",
          "name": "_subscriptionId",
          "type": "uint64"
        }
      ],
      "stateMutability": "nonpayable",
      "type": "constructor"
    },
    {
      "anonymous": false,
      "inputs": [
        {
          "indexed": false,
          "internalType": "uint256",
          "name": "newMinBet",
          "type": "uint256"
        },
        {
          "indexed": false,
          "internalType": "uint256",
          "name": "newMaxBet",
          "type": "uint256"
        }
      ],
      "name": "BetLimitsUpdated",
      "type": "event"
    },
    {
      "anonymous": false,
      "inputs": [
        {
          "indexed": true,
          "internalType": "uint256",
          "name": "gameId",
          "type": "uint256"
        },
        {
          "indexed": true,
          "internalType": "address",
          "name": "player",
          "type": "address"
        },
        {
          "indexed": false,
          "internalType": "uint256",
          "name": "rollResult",
          "type": "uint256"
        },
        {
          "indexed": false,
          "internalType": "uint256",
          "name": "payout",
          "type": "uint256"
        }
      ],
      "name": "GameCompleted",
      "type": "event"
    },
    {
      "anonymous": false,
      "inputs": [
        {
          "indexed": true,
          "internalType": "uint256",
          "name": "gameId",
          "type": "uint256"
        },
        {
          "indexed": true,
          "internalType": "address",
          "name": "player",
          "type": "address"
        },
        {
          "indexed": false,
          "internalType": "uint256",
          "name": "betAmount",
          "type": "uint256"
        },
        {
          "indexed": false,
          "internalType": "uint256",
          "name": "prediction",
          "type": "uint256"
        },
        {
          "indexed": false,
          "internalType": "uint256",
          "name": "requestId",
          "type": "uint256"
        }
      ],
      "name": "GameStarted",
      "type": "event"
    },
    {
      "anonymous": false,
      "inputs": [
        {
          "indexed": true,
          "internalType": "address",
          "name": "previousOwner",
          "type": "address"
        },
        {
          "indexed": true,
          "internalType": "address",
          "name": "newOwner",
          "type": "address"
        }
      ],
      "name": "OwnershipTransferred",
      "type": "event"
    },
    {
      "inputs": [],
      "name": "DICE_SIDES",
      "outputs": [
        {
          "internalType": "uint256",
          "name": "",
          "type": "uint256"
        }
      ],
      "stateMutability": "view",
      "type": "function"
    },
    {
      "inputs": [],
      "name": "HOUSE_EDGE",
      "outputs": [
        {
          "internalType": "uint256",
          "name": "",
          "type": "uint256"
        }
      ],
      "stateMutability": "view",
      "type": "function"
    },
    {
      "inputs": [],
      "name": "MAX_BET",
      "outputs": [
        {
          "internalType": "uint256",
          "name": "",
          "type": "uint256"
        }
      ],
      "stateMutability": "view",
      "type": "function"
    },
    {
      "inputs": [],
      "name": "MIN_BET",
      "outputs": [
        {
          "internalType": "uint256",
          "name": "",
          "type": "uint256"
        }
      ],
      "stateMutability": "view",
      "type": "function"
    },
    {
      "inputs": [
        {
          "internalType": "uint256",
          "name": "betAmount",
          "type": "uint256"
        },
        {
          "internalType": "uint256",
          "name": "prediction",
          "type": "uint256"
        }
      ],
      "name": "calculatePayout",
      "outputs": [
        {
          "internalType": "uint256",
          "name": "",
          "type": "uint256"
        }
      ],
      "stateMutability": "pure",
      "type": "function"
    },
    {
      "inputs": [],
      "name": "gameIdCounter",
      "outputs": [
        {
          "internalType": "uint256",
          "name": "",
          "type": "uint256"
        }
      ],
      "stateMutability": "view",
      "type": "function"
    },
    {
      "inputs": [],
      "name": "gameToken",
      "outputs": [
        {
          "internalType": "contract IGameToken",
          "name": "",
          "type": "address"
        }
      ],
      "stateMutability": "view",
      "type": "function"
    },
    {
      "inputs": [
        {
          "internalType": "uint256",
          "name": "",
          "type": "uint256"
        }
      ],
      "name": "games",
      "outputs": [
        {
          "internalType": "address",
          "name": "player",
          "type": "address"
        },
        {
          "internalType": "uint256",
          "name": "betAmount",
          "type": "uint256"
        },
        {
          "internalType": "uint256",
          "name": "prediction",
          "type": "uint256"
        },
        {
          "internalType": "uint256",
          "name": "rollResult",
          "type": "uint256"
        },
        {
          "internalType": "bool",
          "name": "isCompleted",
          "type": "bool"
        },
        {
          "internalType": "uint256",
          "name": "timestamp",
          "type": "uint256"
        },
        {
          "internalType": "uint256",
          "name": "payout",
          "type": "uint256"
        }
      ],
      "stateMutability": "view",
      "type": "function"
    },
    {
      "inputs": [
        {
          "internalType": "uint256",
          "name": "gameId",
          "type": "uint256"
        }
      ],
      "name": "getGame",
      "outputs": [
        {
          "components": [
            {
              "internalType": "address",
              "name": "player",
              "type": "address"
            },
            {
              "internalType": "uint256",
              "name": "betAmount",
              "type": "uint256"
            },
            {
              "internalType": "uint256",
              "name": "prediction",
              "type": "uint256"
            },
            {
              "internalType": "uint256",
              "name": "rollResult",
              "type": "uint256"
            },
            {
              "internalType": "bool",
              "name": "isCompleted",
              "type": "bool"
            },
            {
              "internalType": "uint256",
              "name": "timestamp",
              "type": "uint256"
            },
            {
              "internalType": "uint256",
              "name": "payout",
              "type": "uint256"
            }
          ],
          "internalType": "struct DiceGame.Game",
          "name": "",
          "type": "tuple"
        }
      ],
      "stateMutability": "view",
      "type": "function"
    },
    {
      "inputs": [
        {
          "internalType": "address",
          "name": "player",
          "type": "address"
        }
      ],
      "name": "getPlayerGames",
      "outputs": [
        {
          "internalType": "uint256[]",
          "name": "",
          "type": "uint256[]"
        }
      ],
      "stateMutability": "view",
      "type": "function"
    },
    {
      "inputs": [
        {
          "internalType": "uint256",
          "name": "",
          "type": "uint256"
        }
      ],
      "name": "isValidRequestId",
      "outputs": [
        {
          "internalType": "bool",
          "name": "",
          "type": "bool"
        }
      ],
      "stateMutability": "view",
      "type": "function"
    },
    {
      "inputs": [],
      "name": "owner",
      "outputs": [
        {
          "internalType": "address",
          "name": "",
          "type": "address"
        }
      ],
      "stateMutability": "view",
      "type": "function"
    },
    {
      "inputs": [
        {
          "internalType": "address",
          "name": "",
          "type": "address"
        },
        {
          "internalType": "uint256",
          "name": "",
          "type": "uint256"
        }
      ],
      "name": "playerGames",
      "outputs": [
        {
          "internalType": "uint256",
          "name": "",
          "type": "uint256"
        }
      ],
      "stateMutability": "view",
      "type": "function"
    },
    {
      "inputs": [
        {
          "internalType": "uint256",
          "name": "requestId",
          "type": "uint256"
        },
        {
          "internalType": "uint256[]",
          "name": "randomWords",
          "type": "uint256[]"
        }
      ],
      "name": "rawFulfillRandomWords",
      "outputs": [],
      "stateMutability": "nonpayable",
      "type": "function"
    },
    {
      "inputs": [],
      "name": "renounceOwnership",
      "outputs": [],
      "stateMutability": "nonpayable",
      "type": "function"
    },
    {
      "inputs": [
        {
          "internalType": "uint256",
          "name": "",
          "type": "uint256"
        }
      ],
      "name": "requestIdToGameId",
      "outputs": [
        {
          "internalType": "uint256",
          "name": "",
          "type": "uint256"
        }
      ],
      "stateMutability": "view",
      "type": "function"
    },
    {
      "inputs": [
        {
          "internalType": "uint256",
          "name": "betAmount",
          "type": "uint256"
        },
        {
          "internalType": "uint256",
          "name": "prediction",
          "type": "uint256"
        }
      ],
      "name": "startGame",
      "outputs": [],
      "stateMutability": "nonpayable",
      "type": "function"
    },
    {
      "inputs": [
        {
          "internalType": "address",
          "name": "newOwner",
          "type": "address"
        }
      ],
      "name": "transferOwnership",
      "outputs": [],
      "stateMutability": "nonpayable",
      "type": "function"
    },
    {
      "inputs": [
        {
          "internalType": "uint256",
          "name": "newMinBet",
          "type": "uint256"
        },
        {
          "internalType": "uint256",
          "name": "newMaxBet",
          "type": "uint256"
        }
      ],
      "name": "updateBetLimits",
      "outputs": [],
      "stateMutability": "nonpayable",
      "type": "function"
    },
    {
      "inputs": [],
      "name": "vrfCoordinator",
      "outputs": [
        {
          "internalType": "contract IVRFCoordinatorV2",
          "name": "",
          "type": "address"
        }
      ],
      "stateMutability": "view",
      "type": "function"
    },
    {
      "inputs": [],
      "name": "withdrawHouseEdge",
      "outputs": [],
      "stateMutability": "nonpayable",
      "type": "function"
    }
  ],
  "bytecode": "0x61010060405269010f0cf064dd59200000600255690a968163f0a57b4000006003553480156200002e57600080fd5b50604051620018a7380380620018a78339810160408190526200005191620000fa565b6200005c336200008d565b600180556001600160a01b039384166080529190921660a05260c0919091526001600160401b031660e0526200015c565b600080546001600160a01b038381166001600160a01b0319831681178455604051919092169283917f8be0079c531659141344cd1fd0a4f28419497f9722a3daafe3b4186f6b6457e09190a35050565b80516001600160a01b0381168114620000f557600080fd5b919050565b600080600080608085870312156200011157600080fd5b6200011c85620000dd565b93506200012c60208601620000dd565b6040860151606087015191945092506001600160401b03811681146200015157600080fd5b939692955090935050565b60805160a05160c05160e0516116d9620001ce6000396000610da001526000610d6f0152600081816103b0015281816107e60152818161088d0152818161096001528181610bca015281816110ec01526111b3015260008181610389015281816105b30152610de501526116d96000f3fe608060405234801561001057600080fd5b50600436106101375760003560e01c80637e95b523116100b8578063a2d2acd21161007c578063a2d2acd2146102e2578063a2f77bcc14610315578063a3e56fa814610384578063c3dfdae6146103ab578063f2fde38b146103d2578063fad9f16f146103e557600080fd5b80637e95b523146102915780638da5cb5b1461029a5780638daaaa2f146102bf5780639a1efc2b146102c75780639dce5ff0146102cf57600080fd5b80631fa072db116100ff5780631fa072db1461023a5780631fe543e31461025a5780636540742f1461026d578063715018a614610276578063730b83811461027e57600080fd5b8063034d3ec21461013c5780630a5694c214610151578063117a5b9014610177578063129daf84146102115780631bb412d614610231575b600080fd5b61014f61014a3660046113b2565b6103ed565b005b61016461015f3660046113f0565b61050b565b6040519081526020015b60405180910390f35b6101d061018536600461141a565b600460208190526000918252604090912080546001820154600283015460038401549484015460058501546006909501546001600160a01b03909416959294919360ff909116919087565b604080516001600160a01b03909816885260208801969096529486019390935260608501919091521515608084015260a083015260c082015260e00161016e565b61022461021f366004611433565b61053c565b60405161016e9190611455565b61016460085481565b61016461024836600461141a565b60056020526000908152604090205481565b61014f6102683660046114af565b6105a8565b61016460025481565b61014f610a8a565b61014f61028c3660046113b2565b610a9e565b61016460035481565b6000546001600160a01b03165b6040516001600160a01b03909116815260200161016e565b610164600381565b610164606481565b6101646102dd3660046113b2565b610ecf565b6103056102f036600461141a565b60066020526000908152604090205460ff1681565b604051901515815260200161016e565b61032861032336600461141a565b610f98565b60405161016e919081516001600160a01b0316815260208083015190820152604080830151908201526060808301519082015260808083015115159082015260a0828101519082015260c0918201519181019190915260e00190565b6102a77f000000000000000000000000000000000000000000000000000000000000000081565b6102a77f000000000000000000000000000000000000000000000000000000000000000081565b61014f6103e0366004611433565b611053565b61014f6110cc565b6103f56112af565b6000821161045e5760405162461bcd60e51b815260206004820152602b60248201527f4469636547616d653a204d696e20626574206d7573742062652067726561746560448201526a72207468616e207a65726f60a81b60648201526084015b60405180910390fd5b8181116104c45760405162461bcd60e51b815260206004820152602e60248201527f4469636547616d653a204d617820626574206d7573742062652067726561746560448201526d1c881d1a185b881b5a5b8818995d60921b6064820152608401610455565b6002829055600381905560408051838152602081018390527ff483a8cf66fadba78e10f404e5f1639eb2a336535936e1af01f333d1215378d1910160405180910390a15050565b6007602052816000526040600020818154811061052757600080fd5b90600052602060002001600091509150505481565b6001600160a01b03811660009081526007602090815260409182902080548351818402810184019094528084526060939283018282801561059c57602002820191906000526020600020905b815481526020019060010190808311610588575b50505050509050919050565b336001600160a01b037f000000000000000000000000000000000000000000000000000000000000000016146106305760405162461bcd60e51b815260206004820152602760248201527f4469636547616d653a204f6e6c792056524620636f6f7264696e61746f722063604482015266185b8818d85b1b60ca1b6064820152608401610455565b60008281526006602052604090205460ff1661068e5760405162461bcd60e51b815260206004820152601c60248201527f4469636547616d653a20496e76616c69642072657175657374204944000000006044820152606401610455565b60008281526005602090815260408083205460068352818420805460ff1916905580845260049283905292209081015460ff161561070e5760405162461bcd60e51b815260206004820181905260248201527f4469636547616d653a2047616d6520616c726561647920636f6d706c657465646044820152606401610455565b60648360008151811061072357610723611579565b602002602001015161073591906115a5565b6107409060016115cf565b6003820181905560048201805460ff19166001179055600282015410610a23576000816002015468056bc75e2d6310000061077b91906115e2565b90506000670de0b6b3a764000082846001015461079891906115f6565b6107a291906115e2565b9050600060646107b36003846115f6565b6107bd91906115e2565b90506107c9818361160d565b60068501556040516370a0823160e01b81523060048201526000907f00000000000000000000000000000000000000000000000000000000000000006001600160a01b0316906370a0823190602401602060405180830381865afa158015610835573d6000803e3d6000fd5b505050506040513d601f19601f820116820180604052508101906108599190611620565b90508460060154811061093f57845460068601546040516001600160a01b03928316602482015260448101919091526000917f0000000000000000000000000000000000000000000000000000000000000000169060640160408051601f198184030181529181526020820180516001600160e01b031663a9059cbb60e01b179052516108e69190611639565b6000604051808303816000865af19150503d8060008114610923576040519150601f19603f3d011682016040523d82523d6000602084013e610928565b606091505b505090508061093957600060068701555b50610a1a565b84546040516001600160a01b039182166024820152604481018390526000917f0000000000000000000000000000000000000000000000000000000000000000169060640160408051601f198184030181529181526020820180516001600160e01b031663a9059cbb60e01b179052516109b99190611639565b6000604051808303816000865af19150503d80600081146109f6576040519150601f19603f3d011682016040523d82523d6000602084013e6109fb565b606091505b5050905080610a105760006006870155610a18565b600686018290555b505b50505050610a2b565b600060068201555b8054600382015460068301546040516001600160a01b039093169285927fa3a193cd49fb44d3709b2d13235998e900d960268b8356d3c2233340fd215c3892610a7c92918252602082015260400190565b60405180910390a350505050565b610a926112af565b610a9c6000611309565b565b610aa6611359565b600254821015610af85760405162461bcd60e51b815260206004820152601c60248201527f4469636547616d653a2042657420616d6f756e7420746f6f206c6f77000000006044820152606401610455565b600354821115610b4a5760405162461bcd60e51b815260206004820152601d60248201527f4469636547616d653a2042657420616d6f756e7420746f6f20686967680000006044820152606401610455565b60018110158015610b5c575060648111155b610ba85760405162461bcd60e51b815260206004820152601c60248201527f4469636547616d653a20496e76616c69642070726564696374696f6e000000006044820152606401610455565b6040516323b872dd60e01b8152336004820152306024820152604481018390527f00000000000000000000000000000000000000000000000000000000000000006001600160a01b0316906323b872dd906064016020604051808303816000875af1158015610c1b573d6000803e3d6000fd5b505050506040513d601f19601f82011682018060405250810190610c3f9190611668565b610c8b5760405162461bcd60e51b815260206004820152601f60248201527f4469636547616d653a20546f6b656e207472616e73666572206661696c6564006044820152606401610455565b6008805460009182610c9c8361168a565b909155506040805160e081018252338082526020808301888152838501888152600060608601818152608087018281524260a0890190815260c089018481528b855260048089528b86209a518b546001600160a01b0319166001600160a01b03918216178c5597516001808d0191909155965160028c015593516003808c019190915592518a8501805460ff1916911515919091179055905160058a015551600690980197909755948152600784528681208054808401825590825293812090930187905594516305d3b1d360e41b81527f00000000000000000000000000000000000000000000000000000000000000009381019390935267ffffffffffffffff7f00000000000000000000000000000000000000000000000000000000000000001660248401526044830193909352620186a06064830152608482019390935292935090917f000000000000000000000000000000000000000000000000000000000000000090911690635d3b1d309060a4016020604051808303816000875af1158015610e30573d6000803e3d6000fd5b505050506040513d601f19601f82011682018060405250810190610e549190611620565b60008181526005602090815260408083208690556006825291829020805460ff191660011790558151878152908101869052908101829052909150339083907fd638ae86679fdf64b28c14eae71d8facbf04f828463fdc2c9f0bf05089ef98e59060600160405180910390a35050610ecb60018055565b5050565b600060018210158015610ee3575060648211155b610f2f5760405162461bcd60e51b815260206004820152601c60248201527f4469636547616d653a20496e76616c69642070726564696374696f6e000000006044820152606401610455565b6000610f448368056bc75e2d631000006115e2565b90506000670de0b6b3a7640000610f5b83876115f6565b610f6591906115e2565b905060006064610f766003846115f6565b610f8091906115e2565b9050610f8c818361160d565b93505050505b92915050565b610fe36040518060e0016040528060006001600160a01b0316815260200160008152602001600081526020016000815260200160001515815260200160008152602001600081525090565b50600090815260046020818152604092839020835160e08101855281546001600160a01b03168152600182015492810192909252600281015493820193909352600383015460608201529082015460ff1615156080820152600582015460a082015260069091015460c082015290565b61105b6112af565b6001600160a01b0381166110c05760405162461bcd60e51b815260206004820152602660248201527f4f776e61626c653a206e6577206f776e657220697320746865207a65726f206160448201526564647265737360d01b6064820152608401610455565b6110c981611309565b50565b6110d46112af565b6040516370a0823160e01b81523060048201526000907f00000000000000000000000000000000000000000000000000000000000000006001600160a01b0316906370a0823190602401602060405180830381865afa15801561113b573d6000803e3d6000fd5b505050506040513d601f19601f8201168201806040525081019061115f9190611620565b9050600081116111b15760405162461bcd60e51b815260206004820152601f60248201527f4469636547616d653a204e6f20746f6b656e7320746f207769746864726177006044820152606401610455565b7f00000000000000000000000000000000000000000000000000000000000000006001600160a01b031663a9059cbb6111f26000546001600160a01b031690565b6040516001600160e01b031960e084901b1681526001600160a01b039091166004820152602481018490526044016020604051808303816000875af115801561123f573d6000803e3d6000fd5b505050506040513d601f19601f820116820180604052508101906112639190611668565b6110c95760405162461bcd60e51b815260206004820152601b60248201527f4469636547616d653a205769746864726177616c206661696c656400000000006044820152606401610455565b6000546001600160a01b03163314610a9c5760405162461bcd60e51b815260206004820181905260248201527f4f776e61626c653a2063616c6c6572206973206e6f7420746865206f776e65726044820152606401610455565b600080546001600160a01b038381166001600160a01b0319831681178455604051919092169283917f8be0079c531659141344cd1fd0a4f28419497f9722a3daafe3b4186f6b6457e09190a35050565b6002600154036113ab5760405162461bcd60e51b815260206004820152601f60248201527f5265656e7472616e637947756172643a207265656e7472616e742063616c6c006044820152606401610455565b6002600155565b600080604083850312156113c557600080fd5b50508035926020909101359150565b80356001600160a01b03811681146113eb57600080fd5b919050565b6000806040838503121561140357600080fd5b61140c836113d4565b946020939093013593505050565b60006020828403121561142c57600080fd5b5035919050565b60006020828403121561144557600080fd5b61144e826113d4565b9392505050565b6020808252825182820181905260009190848201906040850190845b8181101561148d57835183529284019291840191600101611471565b50909695505050505050565b634e487b7160e01b600052604160045260246000fd5b600080604083850312156114c257600080fd5b8235915060208084013567ffffffffffffffff808211156114e257600080fd5b818601915086601f8301126114f657600080fd5b81358181111561150857611508611499565b8060051b604051601f19603f8301168101818110858211171561152d5761152d611499565b60405291825284820192508381018501918983111561154b57600080fd5b938501935b8285101561156957843584529385019392850192611550565b8096505050505050509250929050565b634e487b7160e01b600052603260045260246000fd5b634e487b7160e01b600052601260045260246000fd5b6000826115b4576115b461158f565b500690565b634e487b7160e01b600052601160045260246000fd5b80820180821115610f9257610f926115b9565b6000826115f1576115f161158f565b500490565b8082028115828204841417610f9257610f926115b9565b81810381811115610f9257610f926115b9565b60006020828403121561163257600080fd5b5051919050565b6000825160005b8181101561165a5760208186018101518583015201611640565b506000920191825250919050565b60006020828403121561167a57600080fd5b8151801515811461144e57600080fd5b60006001820161169c5761169c6115b9565b506001019056fea2646970667358221220843bebf6478b77a2162926f79eda480d643cf1fd3012e681f80ecd10de8380cd64736f6c63430008130033",
  "linkReferences": {},
  "deployedLinkReferences": {}
}