{
  "_format": "hh-sol-artifact-1",
  "contractName": "DiceGame",
  "sourceName": "contracts/DiceGame.sol",
  "abi": [
    {
      "inputs": [
        {
          "internalType": "address",
          "name": "_vrfCoordinator",
          "type": "address"
        },
        {
          "internalType": "address",
          "name": "_gameToken",
          "type": "address"
        },
        {
          "internalType": "bytes32",
          "name": "_keyHash",
          "type": "bytes32"
        },
        {
          "internalType": "uint64",
          "name": "_subscriptionId",
          "type": "uint64"
        }
      ],
      "stateMutability": "nonpayable",
      "type": "constructor"
    },
    {
      "anonymous": false,
      "inputs": [
        {
          "indexed": false,
          "internalType": "uint256",
          "name": "newMinBet",
          "type": "uint256"
        },
        {
          "indexed": false,
          "internalType": "uint256",
          "name": "newMaxBet",
          "type": "uint256"
        }
      ],
      "name": "BetLimitsUpdated",
      "type": "event"
    },
    {
      "anonymous": false,
      "inputs": [
        {
          "indexed": true,
          "internalType": "uint256",
          "name": "gameId",
          "type": "uint256"
        },
        {
          "indexed": true,
          "internalType": "address",
          "name": "player",
          "type": "address"
        },
        {
          "indexed": false,
          "internalType": "uint256",
          "name": "rollResult",
          "type": "uint256"
        },
        {
          "indexed": false,
          "internalType": "uint256",
          "name": "payout",
          "type": "uint256"
        }
      ],
      "name": "GameCompleted",
      "type": "event"
    },
    {
      "anonymous": false,
      "inputs": [
        {
          "indexed": true,
          "internalType": "uint256",
          "name": "gameId",
          "type": "uint256"
        },
        {
          "indexed": true,
          "internalType": "address",
          "name": "player",
          "type": "address"
        },
        {
          "indexed": false,
          "internalType": "uint256",
          "name": "betAmount",
          "type": "uint256"
        },
        {
          "indexed": false,
          "internalType": "uint256",
          "name": "prediction",
          "type": "uint256"
        }
      ],
      "name": "GameStarted",
      "type": "event"
    },
    {
      "anonymous": false,
      "inputs": [
        {
          "indexed": true,
          "internalType": "address",
          "name": "previousOwner",
          "type": "address"
        },
        {
          "indexed": true,
          "internalType": "address",
          "name": "newOwner",
          "type": "address"
        }
      ],
      "name": "OwnershipTransferred",
      "type": "event"
    },
    {
      "inputs": [],
      "name": "DICE_SIDES",
      "outputs": [
        {
          "internalType": "uint256",
          "name": "",
          "type": "uint256"
        }
      ],
      "stateMutability": "view",
      "type": "function"
    },
    {
      "inputs": [],
      "name": "HOUSE_EDGE",
      "outputs": [
        {
          "internalType": "uint256",
          "name": "",
          "type": "uint256"
        }
      ],
      "stateMutability": "view",
      "type": "function"
    },
    {
      "inputs": [],
      "name": "MAX_BET",
      "outputs": [
        {
          "internalType": "uint256",
          "name": "",
          "type": "uint256"
        }
      ],
      "stateMutability": "view",
      "type": "function"
    },
    {
      "inputs": [],
      "name": "MIN_BET",
      "outputs": [
        {
          "internalType": "uint256",
          "name": "",
          "type": "uint256"
        }
      ],
      "stateMutability": "view",
      "type": "function"
    },
    {
      "inputs": [
        {
          "internalType": "uint256",
          "name": "betAmount",
          "type": "uint256"
        },
        {
          "internalType": "uint256",
          "name": "prediction",
          "type": "uint256"
        }
      ],
      "name": "calculatePayout",
      "outputs": [
        {
          "internalType": "uint256",
          "name": "",
          "type": "uint256"
        }
      ],
      "stateMutability": "pure",
      "type": "function"
    },
    {
      "inputs": [],
      "name": "gameIdCounter",
      "outputs": [
        {
          "internalType": "uint256",
          "name": "",
          "type": "uint256"
        }
      ],
      "stateMutability": "view",
      "type": "function"
    },
    {
      "inputs": [],
      "name": "gameToken",
      "outputs": [
        {
          "internalType": "contract IGameToken",
          "name": "",
          "type": "address"
        }
      ],
      "stateMutability": "view",
      "type": "function"
    },
    {
      "inputs": [
        {
          "internalType": "uint256",
          "name": "",
          "type": "uint256"
        }
      ],
      "name": "games",
      "outputs": [
        {
          "internalType": "address",
          "name": "player",
          "type": "address"
        },
        {
          "internalType": "uint256",
          "name": "betAmount",
          "type": "uint256"
        },
        {
          "internalType": "uint256",
          "name": "prediction",
          "type": "uint256"
        },
        {
          "internalType": "uint256",
          "name": "rollResult",
          "type": "uint256"
        },
        {
          "internalType": "bool",
          "name": "isCompleted",
          "type": "bool"
        },
        {
          "internalType": "uint256",
          "name": "timestamp",
          "type": "uint256"
        },
        {
          "internalType": "uint256",
          "name": "payout",
          "type": "uint256"
        }
      ],
      "stateMutability": "view",
      "type": "function"
    },
    {
      "inputs": [
        {
          "internalType": "uint256",
          "name": "gameId",
          "type": "uint256"
        }
      ],
      "name": "getGame",
      "outputs": [
        {
          "components": [
            {
              "internalType": "address",
              "name": "player",
              "type": "address"
            },
            {
              "internalType": "uint256",
              "name": "betAmount",
              "type": "uint256"
            },
            {
              "internalType": "uint256",
              "name": "prediction",
              "type": "uint256"
            },
            {
              "internalType": "uint256",
              "name": "rollResult",
              "type": "uint256"
            },
            {
              "internalType": "bool",
              "name": "isCompleted",
              "type": "bool"
            },
            {
              "internalType": "uint256",
              "name": "timestamp",
              "type": "uint256"
            },
            {
              "internalType": "uint256",
              "name": "payout",
              "type": "uint256"
            }
          ],
          "internalType": "struct DiceGame.Game",
          "name": "",
          "type": "tuple"
        }
      ],
      "stateMutability": "view",
      "type": "function"
    },
    {
      "inputs": [
        {
          "internalType": "address",
          "name": "player",
          "type": "address"
        }
      ],
      "name": "getPlayerGames",
      "outputs": [
        {
          "internalType": "uint256[]",
          "name": "",
          "type": "uint256[]"
        }
      ],
      "stateMutability": "view",
      "type": "function"
    },
    {
      "inputs": [],
      "name": "owner",
      "outputs": [
        {
          "internalType": "address",
          "name": "",
          "type": "address"
        }
      ],
      "stateMutability": "view",
      "type": "function"
    },
    {
      "inputs": [
        {
          "internalType": "address",
          "name": "",
          "type": "address"
        },
        {
          "internalType": "uint256",
          "name": "",
          "type": "uint256"
        }
      ],
      "name": "playerGames",
      "outputs": [
        {
          "internalType": "uint256",
          "name": "",
          "type": "uint256"
        }
      ],
      "stateMutability": "view",
      "type": "function"
    },
    {
      "inputs": [
        {
          "internalType": "uint256",
          "name": "requestId",
          "type": "uint256"
        },
        {
          "internalType": "uint256[]",
          "name": "randomWords",
          "type": "uint256[]"
        }
      ],
      "name": "rawFulfillRandomWords",
      "outputs": [],
      "stateMutability": "nonpayable",
      "type": "function"
    },
    {
      "inputs": [],
      "name": "renounceOwnership",
      "outputs": [],
      "stateMutability": "nonpayable",
      "type": "function"
    },
    {
      "inputs": [
        {
          "internalType": "uint256",
          "name": "",
          "type": "uint256"
        }
      ],
      "name": "requestIdToGameId",
      "outputs": [
        {
          "internalType": "uint256",
          "name": "",
          "type": "uint256"
        }
      ],
      "stateMutability": "view",
      "type": "function"
    },
    {
      "inputs": [
        {
          "internalType": "uint256",
          "name": "betAmount",
          "type": "uint256"
        },
        {
          "internalType": "uint256",
          "name": "prediction",
          "type": "uint256"
        }
      ],
      "name": "startGame",
      "outputs": [],
      "stateMutability": "nonpayable",
      "type": "function"
    },
    {
      "inputs": [
        {
          "internalType": "address",
          "name": "newOwner",
          "type": "address"
        }
      ],
      "name": "transferOwnership",
      "outputs": [],
      "stateMutability": "nonpayable",
      "type": "function"
    },
    {
      "inputs": [
        {
          "internalType": "uint256",
          "name": "newMinBet",
          "type": "uint256"
        },
        {
          "internalType": "uint256",
          "name": "newMaxBet",
          "type": "uint256"
        }
      ],
      "name": "updateBetLimits",
      "outputs": [],
      "stateMutability": "nonpayable",
      "type": "function"
    },
    {
      "inputs": [],
      "name": "vrfCoordinator",
      "outputs": [
        {
          "internalType": "contract IVRFCoordinatorV2",
          "name": "",
          "type": "address"
        }
      ],
      "stateMutability": "view",
      "type": "function"
    },
    {
      "inputs": [],
      "name": "withdrawHouseEdge",
      "outputs": [],
      "stateMutability": "nonpayable",
      "type": "function"
    }
  ],
  "bytecode": "0x61010060405266038d7ea4c68000600255678ac7230489e800006003553480156200002957600080fd5b506040516200182a3803806200182a8339810160408190526200004c91620000f5565b620000573362000088565b600180556001600160a01b039384166080529190921660a05260c0919091526001600160401b031660e05262000157565b600080546001600160a01b038381166001600160a01b0319831681178455604051919092169283917f8be0079c531659141344cd1fd0a4f28419497f9722a3daafe3b4186f6b6457e09190a35050565b80516001600160a01b0381168114620000f057600080fd5b919050565b600080600080608085870312156200010c57600080fd5b6200011785620000d8565b93506200012760208601620000d8565b6040860151606087015191945092506001600160401b03811681146200014c57600080fd5b939692955090935050565b60805160a05160c05160e051611661620001c96000396000610d4401526000610d130152600081816103720152818161078e015281816108350152818161090801528181610b7201528181611074015261113b01526000818161034b015281816105750152610d8901526116616000f3fe608060405234801561001057600080fd5b506004361061012c5760003560e01c80637e95b523116100ad578063a2f77bcc11610071578063a2f77bcc146102d7578063a3e56fa814610346578063c3dfdae61461036d578063f2fde38b14610394578063fad9f16f146103a757600080fd5b80637e95b523146102865780638da5cb5b1461028f5780638daaaa2f146102b45780639a1efc2b146102bc5780639dce5ff0146102c457600080fd5b80631fa072db116100f45780631fa072db1461022f5780631fe543e31461024f5780636540742f14610262578063715018a61461026b578063730b83811461027357600080fd5b8063034d3ec2146101315780630a5694c214610146578063117a5b901461016c578063129daf84146102065780631bb412d614610226575b600080fd5b61014461013f36600461133a565b6103af565b005b610159610154366004611378565b6104cd565b6040519081526020015b60405180910390f35b6101c561017a3660046113a2565b600460208190526000918252604090912080546001820154600283015460038401549484015460058501546006909501546001600160a01b03909416959294919360ff909116919087565b604080516001600160a01b03909816885260208801969096529486019390935260608501919091521515608084015260a083015260c082015260e001610163565b6102196102143660046113bb565b6104fe565b60405161016391906113dd565b61015960075481565b61015961023d3660046113a2565b60056020526000908152604090205481565b61014461025d366004611437565b61056a565b61015960025481565b610144610a32565b61014461028136600461133a565b610a46565b61015960035481565b6000546001600160a01b03165b6040516001600160a01b039091168152602001610163565b610159600381565b610159606481565b6101596102d236600461133a565b610e57565b6102ea6102e53660046113a2565b610f20565b604051610163919081516001600160a01b0316815260208083015190820152604080830151908201526060808301519082015260808083015115159082015260a0828101519082015260c0918201519181019190915260e00190565b61029c7f000000000000000000000000000000000000000000000000000000000000000081565b61029c7f000000000000000000000000000000000000000000000000000000000000000081565b6101446103a23660046113bb565b610fdb565b610144611054565b6103b7611237565b600082116104205760405162461bcd60e51b815260206004820152602b60248201527f4469636547616d653a204d696e20626574206d7573742062652067726561746560448201526a72207468616e207a65726f60a81b60648201526084015b60405180910390fd5b8181116104865760405162461bcd60e51b815260206004820152602e60248201527f4469636547616d653a204d617820626574206d7573742062652067726561746560448201526d1c881d1a185b881b5a5b8818995d60921b6064820152608401610417565b6002829055600381905560408051838152602081018390527ff483a8cf66fadba78e10f404e5f1639eb2a336535936e1af01f333d1215378d1910160405180910390a15050565b600660205281600052604060002081815481106104e957600080fd5b90600052602060002001600091509150505481565b6001600160a01b03811660009081526006602090815260409182902080548351818402810184019094528084526060939283018282801561055e57602002820191906000526020600020905b81548152602001906001019080831161054a575b50505050509050919050565b336001600160a01b037f000000000000000000000000000000000000000000000000000000000000000016146105f25760405162461bcd60e51b815260206004820152602760248201527f4469636547616d653a204f6e6c792056524620636f6f7264696e61746f722063604482015266185b8818d85b1b60ca1b6064820152608401610417565b600082815260056020526040812054908190036106515760405162461bcd60e51b815260206004820152601c60248201527f4469636547616d653a20496e76616c69642072657175657374204944000000006044820152606401610417565b60008181526004602081905260409091209081015460ff16156106b65760405162461bcd60e51b815260206004820181905260248201527f4469636547616d653a2047616d6520616c726561647920636f6d706c657465646044820152606401610417565b6064836000815181106106cb576106cb611501565b60200260200101516106dd919061152d565b6106e8906001611557565b6003820181905560048201805460ff191660011790556002820154106109cb576000816002015468056bc75e2d63100000610723919061156a565b90506000670de0b6b3a7640000828460010154610740919061157e565b61074a919061156a565b90506000606461075b60038461157e565b610765919061156a565b90506107718183611595565b60068501556040516370a0823160e01b81523060048201526000907f00000000000000000000000000000000000000000000000000000000000000006001600160a01b0316906370a0823190602401602060405180830381865afa1580156107dd573d6000803e3d6000fd5b505050506040513d601f19601f8201168201806040525081019061080191906115a8565b9050846006015481106108e757845460068601546040516001600160a01b03928316602482015260448101919091526000917f0000000000000000000000000000000000000000000000000000000000000000169060640160408051601f198184030181529181526020820180516001600160e01b031663a9059cbb60e01b1790525161088e91906115c1565b6000604051808303816000865af19150503d80600081146108cb576040519150601f19603f3d011682016040523d82523d6000602084013e6108d0565b606091505b50509050806108e157600060068701555b506109c2565b84546040516001600160a01b039182166024820152604481018390526000917f0000000000000000000000000000000000000000000000000000000000000000169060640160408051601f198184030181529181526020820180516001600160e01b031663a9059cbb60e01b1790525161096191906115c1565b6000604051808303816000865af19150503d806000811461099e576040519150601f19603f3d011682016040523d82523d6000602084013e6109a3565b606091505b50509050806109b857600060068701556109c0565b600686018290555b505b505050506109d3565b600060068201555b8054600382015460068301546040516001600160a01b039093169285927fa3a193cd49fb44d3709b2d13235998e900d960268b8356d3c2233340fd215c3892610a2492918252602082015260400190565b60405180910390a350505050565b610a3a611237565b610a446000611291565b565b610a4e6112e1565b600254821015610aa05760405162461bcd60e51b815260206004820152601c60248201527f4469636547616d653a2042657420616d6f756e7420746f6f206c6f77000000006044820152606401610417565b600354821115610af25760405162461bcd60e51b815260206004820152601d60248201527f4469636547616d653a2042657420616d6f756e7420746f6f20686967680000006044820152606401610417565b60018110158015610b04575060648111155b610b505760405162461bcd60e51b815260206004820152601c60248201527f4469636547616d653a20496e76616c69642070726564696374696f6e000000006044820152606401610417565b6040516323b872dd60e01b8152336004820152306024820152604481018390527f00000000000000000000000000000000000000000000000000000000000000006001600160a01b0316906323b872dd906064016020604051808303816000875af1158015610bc3573d6000803e3d6000fd5b505050506040513d601f19601f82011682018060405250810190610be791906115f0565b610c335760405162461bcd60e51b815260206004820152601f60248201527f4469636547616d653a20546f6b656e207472616e73666572206661696c6564006044820152606401610417565b6007805460009182610c4483611612565b909155506040805160e081018252338082526020808301888152838501888152600060608601818152608087018281524260a0890190815260c089018481528b855260048089528b86209a518b546001600160a01b0319166001600160a01b03918216178c5597516001808d0191909155965160028c015593516003808c019190915592518a8501805460ff1916911515919091179055905160058a0155516006988901559582529584528681208054808401825590825293812090930187905594516305d3b1d360e41b81527f00000000000000000000000000000000000000000000000000000000000000009481019490945267ffffffffffffffff7f00000000000000000000000000000000000000000000000000000000000000001660248501526044840192909252620186a06064840152608483019390935292935090917f00000000000000000000000000000000000000000000000000000000000000001690635d3b1d309060a4016020604051808303816000875af1158015610dd2573d6000803e3d6000fd5b505050506040513d601f19601f82011682018060405250810190610df691906115a8565b6000818152600560209081526040918290208590558151878152908101869052919250339184917f84228d3018120f886d4debf807f1a71ddef36c16b96045e7a4aab36f838d8beb910160405180910390a35050610e5360018055565b5050565b600060018210158015610e6b575060648211155b610eb75760405162461bcd60e51b815260206004820152601c60248201527f4469636547616d653a20496e76616c69642070726564696374696f6e000000006044820152606401610417565b6000610ecc8368056bc75e2d6310000061156a565b90506000670de0b6b3a7640000610ee3838761157e565b610eed919061156a565b905060006064610efe60038461157e565b610f08919061156a565b9050610f148183611595565b93505050505b92915050565b610f6b6040518060e0016040528060006001600160a01b0316815260200160008152602001600081526020016000815260200160001515815260200160008152602001600081525090565b50600090815260046020818152604092839020835160e08101855281546001600160a01b03168152600182015492810192909252600281015493820193909352600383015460608201529082015460ff1615156080820152600582015460a082015260069091015460c082015290565b610fe3611237565b6001600160a01b0381166110485760405162461bcd60e51b815260206004820152602660248201527f4f776e61626c653a206e6577206f776e657220697320746865207a65726f206160448201526564647265737360d01b6064820152608401610417565b61105181611291565b50565b61105c611237565b6040516370a0823160e01b81523060048201526000907f00000000000000000000000000000000000000000000000000000000000000006001600160a01b0316906370a0823190602401602060405180830381865afa1580156110c3573d6000803e3d6000fd5b505050506040513d601f19601f820116820180604052508101906110e791906115a8565b9050600081116111395760405162461bcd60e51b815260206004820152601f60248201527f4469636547616d653a204e6f20746f6b656e7320746f207769746864726177006044820152606401610417565b7f00000000000000000000000000000000000000000000000000000000000000006001600160a01b031663a9059cbb61117a6000546001600160a01b031690565b6040516001600160e01b031960e084901b1681526001600160a01b039091166004820152602481018490526044016020604051808303816000875af11580156111c7573d6000803e3d6000fd5b505050506040513d601f19601f820116820180604052508101906111eb91906115f0565b6110515760405162461bcd60e51b815260206004820152601b60248201527f4469636547616d653a205769746864726177616c206661696c656400000000006044820152606401610417565b6000546001600160a01b03163314610a445760405162461bcd60e51b815260206004820181905260248201527f4f776e61626c653a2063616c6c6572206973206e6f7420746865206f776e65726044820152606401610417565b600080546001600160a01b038381166001600160a01b0319831681178455604051919092169283917f8be0079c531659141344cd1fd0a4f28419497f9722a3daafe3b4186f6b6457e09190a35050565b6002600154036113335760405162461bcd60e51b815260206004820152601f60248201527f5265656e7472616e637947756172643a207265656e7472616e742063616c6c006044820152606401610417565b6002600155565b6000806040838503121561134d57600080fd5b50508035926020909101359150565b80356001600160a01b038116811461137357600080fd5b919050565b6000806040838503121561138b57600080fd5b6113948361135c565b946020939093013593505050565b6000602082840312156113b457600080fd5b5035919050565b6000602082840312156113cd57600080fd5b6113d68261135c565b9392505050565b6020808252825182820181905260009190848201906040850190845b81811015611415578351835292840192918401916001016113f9565b50909695505050505050565b634e487b7160e01b600052604160045260246000fd5b6000806040838503121561144a57600080fd5b8235915060208084013567ffffffffffffffff8082111561146a57600080fd5b818601915086601f83011261147e57600080fd5b81358181111561149057611490611421565b8060051b604051601f19603f830116810181811085821117156114b5576114b5611421565b6040529182528482019250838101850191898311156114d357600080fd5b938501935b828510156114f1578435845293850193928501926114d8565b8096505050505050509250929050565b634e487b7160e01b600052603260045260246000fd5b634e487b7160e01b600052601260045260246000fd5b60008261153c5761153c611517565b500690565b634e487b7160e01b600052601160045260246000fd5b80820180821115610f1a57610f1a611541565b60008261157957611579611517565b500490565b8082028115828204841417610f1a57610f1a611541565b81810381811115610f1a57610f1a611541565b6000602082840312156115ba57600080fd5b5051919050565b6000825160005b818110156115e257602081860181015185830152016115c8565b506000920191825250919050565b60006020828403121561160257600080fd5b815180151581146113d657600080fd5b60006001820161162457611624611541565b506001019056fea264697066735822122053ac6efed2da7b40b064795083e637984a9dc90671c8e4f43e56e8d6e32bb54364736f6c63430008130033",
  "linkReferences": {},
  "deployedLinkReferences": {}
}