{
  "_format": "hh-sol-artifact-1",
  "contractName": "GameToken",
  "sourceName": "contracts/GameToken.sol",
  "abi": [
    {
      "inputs": [
        {
          "internalType": "string",
          "name": "name",
          "type": "string"
        },
        {
          "internalType": "string",
          "name": "symbol",
          "type": "string"
        }
      ],
      "stateMutability": "nonpayable",
      "type": "constructor"
    },
    {
      "anonymous": false,
      "inputs": [
        {
          "indexed": true,
          "internalType": "address",
          "name": "owner",
          "type": "address"
        },
        {
          "indexed": true,
          "internalType": "address",
          "name": "spender",
          "type": "address"
        },
        {
          "indexed": false,
          "internalType": "uint256",
          "name": "value",
          "type": "uint256"
        }
      ],
      "name": "Approval",
      "type": "event"
    },
    {
      "anonymous": false,
      "inputs": [
        {
          "indexed": true,
          "internalType": "address",
          "name": "previousOwner",
          "type": "address"
        },
        {
          "indexed": true,
          "internalType": "address",
          "name": "newOwner",
          "type": "address"
        }
      ],
      "name": "OwnershipTransferred",
      "type": "event"
    },
    {
      "anonymous": false,
      "inputs": [
        {
          "indexed": true,
          "internalType": "address",
          "name": "from",
          "type": "address"
        },
        {
          "indexed": false,
          "internalType": "uint256",
          "name": "amount",
          "type": "uint256"
        }
      ],
      "name": "TokensBurned",
      "type": "event"
    },
    {
      "anonymous": false,
      "inputs": [
        {
          "indexed": true,
          "internalType": "address",
          "name": "to",
          "type": "address"
        },
        {
          "indexed": false,
          "internalType": "uint256",
          "name": "amount",
          "type": "uint256"
        }
      ],
      "name": "TokensMinted",
      "type": "event"
    },
    {
      "anonymous": false,
      "inputs": [
        {
          "indexed": true,
          "internalType": "address",
          "name": "from",
          "type": "address"
        },
        {
          "indexed": true,
          "internalType": "address",
          "name": "to",
          "type": "address"
        },
        {
          "indexed": false,
          "internalType": "uint256",
          "name": "value",
          "type": "uint256"
        }
      ],
      "name": "Transfer",
      "type": "event"
    },
    {
      "inputs": [],
      "name": "MAX_SUPPLY",
      "outputs": [
        {
          "internalType": "uint256",
          "name": "",
          "type": "uint256"
        }
      ],
      "stateMutability": "view",
      "type": "function"
    },
    {
      "inputs": [],
      "name": "MINT_FEE",
      "outputs": [
        {
          "internalType": "uint256",
          "name": "",
          "type": "uint256"
        }
      ],
      "stateMutability": "view",
      "type": "function"
    },
    {
      "inputs": [
        {
          "internalType": "address",
          "name": "owner",
          "type": "address"
        },
        {
          "internalType": "address",
          "name": "spender",
          "type": "address"
        }
      ],
      "name": "allowance",
      "outputs": [
        {
          "internalType": "uint256",
          "name": "",
          "type": "uint256"
        }
      ],
      "stateMutability": "view",
      "type": "function"
    },
    {
      "inputs": [
        {
          "internalType": "address",
          "name": "spender",
          "type": "address"
        },
        {
          "internalType": "uint256",
          "name": "amount",
          "type": "uint256"
        }
      ],
      "name": "approve",
      "outputs": [
        {
          "internalType": "bool",
          "name": "",
          "type": "bool"
        }
      ],
      "stateMutability": "nonpayable",
      "type": "function"
    },
    {
      "inputs": [
        {
          "internalType": "address",
          "name": "account",
          "type": "address"
        }
      ],
      "name": "balanceOf",
      "outputs": [
        {
          "internalType": "uint256",
          "name": "",
          "type": "uint256"
        }
      ],
      "stateMutability": "view",
      "type": "function"
    },
    {
      "inputs": [
        {
          "internalType": "address",
          "name": "from",
          "type": "address"
        },
        {
          "internalType": "uint256",
          "name": "amount",
          "type": "uint256"
        }
      ],
      "name": "burn",
      "outputs": [],
      "stateMutability": "nonpayable",
      "type": "function"
    },
    {
      "inputs": [],
      "name": "decimals",
      "outputs": [
        {
          "internalType": "uint8",
          "name": "",
          "type": "uint8"
        }
      ],
      "stateMutability": "view",
      "type": "function"
    },
    {
      "inputs": [
        {
          "internalType": "address",
          "name": "spender",
          "type": "address"
        },
        {
          "internalType": "uint256",
          "name": "subtractedValue",
          "type": "uint256"
        }
      ],
      "name": "decreaseAllowance",
      "outputs": [
        {
          "internalType": "bool",
          "name": "",
          "type": "bool"
        }
      ],
      "stateMutability": "nonpayable",
      "type": "function"
    },
    {
      "inputs": [
        {
          "internalType": "address",
          "name": "spender",
          "type": "address"
        },
        {
          "internalType": "uint256",
          "name": "addedValue",
          "type": "uint256"
        }
      ],
      "name": "increaseAllowance",
      "outputs": [
        {
          "internalType": "bool",
          "name": "",
          "type": "bool"
        }
      ],
      "stateMutability": "nonpayable",
      "type": "function"
    },
    {
      "inputs": [
        {
          "internalType": "address",
          "name": "to",
          "type": "address"
        },
        {
          "internalType": "uint256",
          "name": "amount",
          "type": "uint256"
        }
      ],
      "name": "mint",
      "outputs": [],
      "stateMutability": "nonpayable",
      "type": "function"
    },
    {
      "inputs": [
        {
          "internalType": "uint256",
          "name": "amount",
          "type": "uint256"
        }
      ],
      "name": "mintWithEth",
      "outputs": [],
      "stateMutability": "payable",
      "type": "function"
    },
    {
      "inputs": [],
      "name": "name",
      "outputs": [
        {
          "internalType": "string",
          "name": "",
          "type": "string"
        }
      ],
      "stateMutability": "view",
      "type": "function"
    },
    {
      "inputs": [],
      "name": "owner",
      "outputs": [
        {
          "internalType": "address",
          "name": "",
          "type": "address"
        }
      ],
      "stateMutability": "view",
      "type": "function"
    },
    {
      "inputs": [],
      "name": "renounceOwnership",
      "outputs": [],
      "stateMutability": "nonpayable",
      "type": "function"
    },
    {
      "inputs": [],
      "name": "symbol",
      "outputs": [
        {
          "internalType": "string",
          "name": "",
          "type": "string"
        }
      ],
      "stateMutability": "view",
      "type": "function"
    },
    {
      "inputs": [],
      "name": "totalSupply",
      "outputs": [
        {
          "internalType": "uint256",
          "name": "",
          "type": "uint256"
        }
      ],
      "stateMutability": "view",
      "type": "function"
    },
    {
      "inputs": [
        {
          "internalType": "address",
          "name": "to",
          "type": "address"
        },
        {
          "internalType": "uint256",
          "name": "amount",
          "type": "uint256"
        }
      ],
      "name": "transfer",
      "outputs": [
        {
          "internalType": "bool",
          "name": "",
          "type": "bool"
        }
      ],
      "stateMutability": "nonpayable",
      "type": "function"
    },
    {
      "inputs": [
        {
          "internalType": "address",
          "name": "from",
          "type": "address"
        },
        {
          "internalType": "address",
          "name": "to",
          "type": "address"
        },
        {
          "internalType": "uint256",
          "name": "amount",
          "type": "uint256"
        }
      ],
      "name": "transferFrom",
      "outputs": [
        {
          "internalType": "bool",
          "name": "",
          "type": "bool"
        }
      ],
      "stateMutability": "nonpayable",
      "type": "function"
    },
    {
      "inputs": [
        {
          "internalType": "address",
          "name": "newOwner",
          "type": "address"
        }
      ],
      "name": "transferOwnership",
      "outputs": [],
      "stateMutability": "nonpayable",
      "type": "function"
    },
    {
      "inputs": [
        {
          "internalType": "uint256",
          "name": "newFee",
          "type": "uint256"
        }
      ],
      "name": "updateMintFee",
      "outputs": [],
      "stateMutability": "nonpayable",
      "type": "function"
    },
    {
      "inputs": [],
      "name": "withdrawEth",
      "outputs": [],
      "stateMutability": "nonpayable",
      "type": "function"
    }
  ],
  "bytecode": "0x6080604052662386f26fc100006006553480156200001c57600080fd5b5060405162001710380380620017108339810160408190526200003f916200027f565b818160036200004f838262000377565b5060046200005e828262000377565b5050506200007b620000756200009960201b60201c565b6200009d565b620000913369d3c21bcecceda1000000620000ef565b50506200046b565b3390565b600580546001600160a01b038381166001600160a01b0319831681179093556040519116919082907f8be0079c531659141344cd1fd0a4f28419497f9722a3daafe3b4186f6b6457e090600090a35050565b6001600160a01b0382166200014a5760405162461bcd60e51b815260206004820152601f60248201527f45524332303a206d696e7420746f20746865207a65726f206164647265737300604482015260640160405180910390fd5b80600260008282546200015e919062000443565b90915550506001600160a01b038216600081815260208181526040808320805486019055518481527fddf252ad1be2c89b69c2b068fc378daa952ba7f163c4a11628f55a4df523b3ef910160405180910390a35050565b505050565b634e487b7160e01b600052604160045260246000fd5b600082601f830112620001e257600080fd5b81516001600160401b0380821115620001ff57620001ff620001ba565b604051601f8301601f19908116603f011681019082821181831017156200022a576200022a620001ba565b816040528381526020925086838588010111156200024757600080fd5b600091505b838210156200026b57858201830151818301840152908201906200024c565b600093810190920192909252949350505050565b600080604083850312156200029357600080fd5b82516001600160401b0380821115620002ab57600080fd5b620002b986838701620001d0565b93506020850151915080821115620002d057600080fd5b50620002df85828601620001d0565b9150509250929050565b600181811c90821680620002fe57607f821691505b6020821081036200031f57634e487b7160e01b600052602260045260246000fd5b50919050565b601f821115620001b557600081815260208120601f850160051c810160208610156200034e5750805b601f850160051c820191505b818110156200036f578281556001016200035a565b505050505050565b81516001600160401b03811115620003935762000393620001ba565b620003ab81620003a48454620002e9565b8462000325565b602080601f831160018114620003e35760008415620003ca5750858301515b600019600386901b1c1916600185901b1785556200036f565b600085815260208120601f198616915b828110156200041457888601518255948401946001909101908401620003f3565b5085821015620004335787850151600019600388901b60f8161c191681555b5050505050600190811b01905550565b808201808211156200046557634e487b7160e01b600052601160045260246000fd5b92915050565b611295806200047b6000396000f3fe60806040526004361061012a5760003560e01c8063715018a6116100ab578063a0ef91df1161006f578063a0ef91df14610321578063a457c2d714610336578063a9059cbb14610356578063d7bf81a314610376578063dd62ed3e1461038c578063f2fde38b146103ac57600080fd5b8063715018a61461028f57806384017e52146102a45780638da5cb5b146102c457806395d89b41146102ec5780639dc29fac1461030157600080fd5b8063313ce567116100f2578063313ce567146101de57806332cb6b0c146101fa578063395093511461021957806340c10f191461023957806370a082311461025957600080fd5b806306fdde031461012f578063095ea7b31461015a5780630df10da91461018a57806318160ddd1461019f57806323b872dd146101be575b600080fd5b34801561013b57600080fd5b506101446103cc565b604051610151919061101d565b60405180910390f35b34801561016657600080fd5b5061017a610175366004611087565b61045e565b6040519015158152602001610151565b61019d6101983660046110b1565b610478565b005b3480156101ab57600080fd5b506002545b604051908152602001610151565b3480156101ca57600080fd5b5061017a6101d93660046110ca565b6105b6565b3480156101ea57600080fd5b5060405160128152602001610151565b34801561020657600080fd5b506101b06a52b7d2dcc80cd2e400000081565b34801561022557600080fd5b5061017a610234366004611087565b6105da565b34801561024557600080fd5b5061019d610254366004611087565b6105fc565b34801561026557600080fd5b506101b0610274366004611106565b6001600160a01b031660009081526020819052604090205490565b34801561029b57600080fd5b5061019d610718565b3480156102b057600080fd5b5061019d6102bf3660046110b1565b61072c565b3480156102d057600080fd5b506005546040516001600160a01b039091168152602001610151565b3480156102f857600080fd5b50610144610739565b34801561030d57600080fd5b5061019d61031c366004611087565b610748565b34801561032d57600080fd5b5061019d61088a565b34801561034257600080fd5b5061017a610351366004611087565b61091a565b34801561036257600080fd5b5061017a610371366004611087565b610995565b34801561038257600080fd5b506101b060065481565b34801561039857600080fd5b506101b06103a7366004611128565b6109a3565b3480156103b857600080fd5b5061019d6103c7366004611106565b6109ce565b6060600380546103db9061115b565b80601f01602080910402602001604051908101604052809291908181526020018280546104079061115b565b80156104545780601f1061042957610100808354040283529160200191610454565b820191906000526020600020905b81548152906001019060200180831161043757829003601f168201915b5050505050905090565b60003361046c818585610a44565b60019150505b92915050565b6006543410156104cf5760405162461bcd60e51b815260206004820152601b60248201527f47616d65546f6b656e3a20496e73756666696369656e7420666565000000000060448201526064015b60405180910390fd5b600081116104ef5760405162461bcd60e51b81526004016104c690611195565b6a52b7d2dcc80cd2e40000008161050560025490565b61050f91906111f6565b111561052d5760405162461bcd60e51b81526004016104c690611209565b6105373382610b69565b60405181815233907f3f2c9d57c068687834f0de942a9babb9e5acab57d516d3480a3c16ee165a42739060200160405180910390a26006543411156105b35760065433906108fc90610589903461124c565b6040518115909202916000818181858888f193505050501580156105b1573d6000803e3d6000fd5b505b50565b6000336105c4858285610c29565b6105cf858585610ca3565b506001949350505050565b60003361046c8185856105ed83836109a3565b6105f791906111f6565b610a44565b610604610e47565b6001600160a01b0382166106695760405162461bcd60e51b815260206004820152602660248201527f47616d65546f6b656e3a2043616e6e6f74206d696e7420746f207a65726f206160448201526564647265737360d01b60648201526084016104c6565b600081116106895760405162461bcd60e51b81526004016104c690611195565b6a52b7d2dcc80cd2e40000008161069f60025490565b6106a991906111f6565b11156106c75760405162461bcd60e51b81526004016104c690611209565b6106d18282610b69565b816001600160a01b03167f3f2c9d57c068687834f0de942a9babb9e5acab57d516d3480a3c16ee165a42738260405161070c91815260200190565b60405180910390a25050565b610720610e47565b61072a6000610ea1565b565b610734610e47565b600655565b6060600480546103db9061115b565b610750610e47565b6001600160a01b0382166107b75760405162461bcd60e51b815260206004820152602860248201527f47616d65546f6b656e3a2043616e6e6f74206275726e2066726f6d207a65726f604482015267206164647265737360c01b60648201526084016104c6565b600081116107d75760405162461bcd60e51b81526004016104c690611195565b806107f7836001600160a01b031660009081526020819052604090205490565b10156108455760405162461bcd60e51b815260206004820152601f60248201527f47616d65546f6b656e3a20496e73756666696369656e742062616c616e63650060448201526064016104c6565b61084f8282610ef3565b816001600160a01b03167ffd38818f5291bf0bb3a2a48aadc06ba8757865d1dabd804585338aab3009dcb68260405161070c91815260200190565b610892610e47565b47806108e05760405162461bcd60e51b815260206004820152601d60248201527f47616d65546f6b656e3a204e6f2045544820746f20776974686472617700000060448201526064016104c6565b6005546040516001600160a01b039091169082156108fc029083906000818181858888f193505050501580156105b1573d6000803e3d6000fd5b6000338161092882866109a3565b9050838110156109885760405162461bcd60e51b815260206004820152602560248201527f45524332303a2064656372656173656420616c6c6f77616e63652062656c6f77604482015264207a65726f60d81b60648201526084016104c6565b6105cf8286868403610a44565b60003361046c818585610ca3565b6001600160a01b03918216600090815260016020908152604080832093909416825291909152205490565b6109d6610e47565b6001600160a01b038116610a3b5760405162461bcd60e51b815260206004820152602660248201527f4f776e61626c653a206e6577206f776e657220697320746865207a65726f206160448201526564647265737360d01b60648201526084016104c6565b6105b381610ea1565b6001600160a01b038316610aa65760405162461bcd60e51b8152602060048201526024808201527f45524332303a20617070726f76652066726f6d20746865207a65726f206164646044820152637265737360e01b60648201526084016104c6565b6001600160a01b038216610b075760405162461bcd60e51b815260206004820152602260248201527f45524332303a20617070726f766520746f20746865207a65726f206164647265604482015261737360f01b60648201526084016104c6565b6001600160a01b0383811660008181526001602090815260408083209487168084529482529182902085905590518481527f8c5be1e5ebec7d5bd14f71427d1e84f3dd0314c0f7b2291e5b200ac8c7c3b92591015b60405180910390a3505050565b6001600160a01b038216610bbf5760405162461bcd60e51b815260206004820152601f60248201527f45524332303a206d696e7420746f20746865207a65726f20616464726573730060448201526064016104c6565b8060026000828254610bd191906111f6565b90915550506001600160a01b038216600081815260208181526040808320805486019055518481527fddf252ad1be2c89b69c2b068fc378daa952ba7f163c4a11628f55a4df523b3ef910160405180910390a36105b1565b6000610c3584846109a3565b90506000198114610c9d5781811015610c905760405162461bcd60e51b815260206004820152601d60248201527f45524332303a20696e73756666696369656e7420616c6c6f77616e636500000060448201526064016104c6565b610c9d8484848403610a44565b50505050565b6001600160a01b038316610d075760405162461bcd60e51b815260206004820152602560248201527f45524332303a207472616e736665722066726f6d20746865207a65726f206164604482015264647265737360d81b60648201526084016104c6565b6001600160a01b038216610d695760405162461bcd60e51b815260206004820152602360248201527f45524332303a207472616e7366657220746f20746865207a65726f206164647260448201526265737360e81b60648201526084016104c6565b6001600160a01b03831660009081526020819052604090205481811015610de15760405162461bcd60e51b815260206004820152602660248201527f45524332303a207472616e7366657220616d6f756e7420657863656564732062604482015265616c616e636560d01b60648201526084016104c6565b6001600160a01b03848116600081815260208181526040808320878703905593871680835291849020805487019055925185815290927fddf252ad1be2c89b69c2b068fc378daa952ba7f163c4a11628f55a4df523b3ef910160405180910390a3610c9d565b6005546001600160a01b0316331461072a5760405162461bcd60e51b815260206004820181905260248201527f4f776e61626c653a2063616c6c6572206973206e6f7420746865206f776e657260448201526064016104c6565b600580546001600160a01b038381166001600160a01b0319831681179093556040519116919082907f8be0079c531659141344cd1fd0a4f28419497f9722a3daafe3b4186f6b6457e090600090a35050565b6001600160a01b038216610f535760405162461bcd60e51b815260206004820152602160248201527f45524332303a206275726e2066726f6d20746865207a65726f206164647265736044820152607360f81b60648201526084016104c6565b6001600160a01b03821660009081526020819052604090205481811015610fc75760405162461bcd60e51b815260206004820152602260248201527f45524332303a206275726e20616d6f756e7420657863656564732062616c616e604482015261636560f01b60648201526084016104c6565b6001600160a01b0383166000818152602081815260408083208686039055600280548790039055518581529192917fddf252ad1be2c89b69c2b068fc378daa952ba7f163c4a11628f55a4df523b3ef9101610b5c565b600060208083528351808285015260005b8181101561104a5785810183015185820160400152820161102e565b506000604082860101526040601f19601f8301168501019250505092915050565b80356001600160a01b038116811461108257600080fd5b919050565b6000806040838503121561109a57600080fd5b6110a38361106b565b946020939093013593505050565b6000602082840312156110c357600080fd5b5035919050565b6000806000606084860312156110df57600080fd5b6110e88461106b565b92506110f66020850161106b565b9150604084013590509250925092565b60006020828403121561111857600080fd5b6111218261106b565b9392505050565b6000806040838503121561113b57600080fd5b6111448361106b565b91506111526020840161106b565b90509250929050565b600181811c9082168061116f57607f821691505b60208210810361118f57634e487b7160e01b600052602260045260246000fd5b50919050565b6020808252602b908201527f47616d65546f6b656e3a20416d6f756e74206d7573742062652067726561746560408201526a72207468616e207a65726f60a81b606082015260800190565b634e487b7160e01b600052601160045260246000fd5b80820180821115610472576104726111e0565b60208082526023908201527f47616d65546f6b656e3a2043616e6e6f7420657863656564206d617820737570604082015262706c7960e81b606082015260800190565b81810381811115610472576104726111e056fea2646970667358221220a6a004b21ebf68a8d3945738745b115cfea2f39c54b216d20968064731884bdc64736f6c63430008130033",
  "linkReferences": {},
  "deployedLinkReferences": {}
}