{
  "_format": "hh-sol-artifact-1",
  "contractName": "Lottery",
  "sourceName": "contracts/Lottery.sol",
  "abi": [
    {
      "inputs": [
        {
          "internalType": "address",
          "name": "_vrfCoordinator",
          "type": "address"
        },
        {
          "internalType": "address",
          "name": "_gameToken",
          "type": "address"
        },
        {
          "internalType": "bytes32",
          "name": "_keyHash",
          "type": "bytes32"
        },
        {
          "internalType": "uint64",
          "name": "_subscriptionId",
          "type": "uint64"
        }
      ],
      "stateMutability": "nonpayable",
      "type": "constructor"
    },
    {
      "anonymous": false,
      "inputs": [
        {
          "indexed": true,
          "internalType": "uint256",
          "name": "lotteryId",
          "type": "uint256"
        },
        {
          "indexed": false,
          "internalType": "uint256",
          "name": "startTime",
          "type": "uint256"
        },
        {
          "indexed": false,
          "internalType": "uint256",
          "name": "endTime",
          "type": "uint256"
        }
      ],
      "name": "LotteryCreated",
      "type": "event"
    },
    {
      "anonymous": false,
      "inputs": [
        {
          "indexed": true,
          "internalType": "uint256",
          "name": "lotteryId",
          "type": "uint256"
        },
        {
          "indexed": true,
          "internalType": "uint256",
          "name": "requestId",
          "type": "uint256"
        }
      ],
      "name": "LotteryDrawRequested",
      "type": "event"
    },
    {
      "anonymous": false,
      "inputs": [
        {
          "indexed": true,
          "internalType": "uint256",
          "name": "lotteryId",
          "type": "uint256"
        },
        {
          "indexed": true,
          "internalType": "address",
          "name": "winner",
          "type": "address"
        },
        {
          "indexed": false,
          "internalType": "uint256",
          "name": "winningNumber",
          "type": "uint256"
        },
        {
          "indexed": false,
          "internalType": "uint256",
          "name": "prize",
          "type": "uint256"
        }
      ],
      "name": "LotteryDrawn",
      "type": "event"
    },
    {
      "anonymous": false,
      "inputs": [
        {
          "indexed": true,
          "internalType": "address",
          "name": "previousOwner",
          "type": "address"
        },
        {
          "indexed": true,
          "internalType": "address",
          "name": "newOwner",
          "type": "address"
        }
      ],
      "name": "OwnershipTransferred",
      "type": "event"
    },
    {
      "anonymous": false,
      "inputs": [
        {
          "indexed": true,
          "internalType": "uint256",
          "name": "lotteryId",
          "type": "uint256"
        },
        {
          "indexed": true,
          "internalType": "address",
          "name": "winner",
          "type": "address"
        },
        {
          "indexed": false,
          "internalType": "uint256",
          "name": "amount",
          "type": "uint256"
        }
      ],
      "name": "PrizeClaimed",
      "type": "event"
    },
    {
      "anonymous": false,
      "inputs": [
        {
          "indexed": false,
          "internalType": "uint256",
          "name": "newPrice",
          "type": "uint256"
        }
      ],
      "name": "TicketPriceUpdated",
      "type": "event"
    },
    {
      "anonymous": false,
      "inputs": [
        {
          "indexed": true,
          "internalType": "uint256",
          "name": "lotteryId",
          "type": "uint256"
        },
        {
          "indexed": true,
          "internalType": "address",
          "name": "player",
          "type": "address"
        },
        {
          "indexed": false,
          "internalType": "uint256",
          "name": "ticketCount",
          "type": "uint256"
        }
      ],
      "name": "TicketPurchased",
      "type": "event"
    },
    {
      "inputs": [],
      "name": "DRAW_INTERVAL",
      "outputs": [
        {
          "internalType": "uint256",
          "name": "",
          "type": "uint256"
        }
      ],
      "stateMutability": "view",
      "type": "function"
    },
    {
      "inputs": [],
      "name": "HOUSE_EDGE",
      "outputs": [
        {
          "internalType": "uint256",
          "name": "",
          "type": "uint256"
        }
      ],
      "stateMutability": "view",
      "type": "function"
    },
    {
      "inputs": [],
      "name": "MAX_PLAYERS",
      "outputs": [
        {
          "internalType": "uint256",
          "name": "",
          "type": "uint256"
        }
      ],
      "stateMutability": "view",
      "type": "function"
    },
    {
      "inputs": [],
      "name": "MIN_PLAYERS",
      "outputs": [
        {
          "internalType": "uint256",
          "name": "",
          "type": "uint256"
        }
      ],
      "stateMutability": "view",
      "type": "function"
    },
    {
      "inputs": [],
      "name": "currentLotteryId",
      "outputs": [
        {
          "internalType": "uint256",
          "name": "",
          "type": "uint256"
        }
      ],
      "stateMutability": "view",
      "type": "function"
    },
    {
      "inputs": [],
      "name": "gameToken",
      "outputs": [
        {
          "internalType": "contract IGameToken",
          "name": "",
          "type": "address"
        }
      ],
      "stateMutability": "view",
      "type": "function"
    },
    {
      "inputs": [
        {
          "internalType": "uint256",
          "name": "lotteryId",
          "type": "uint256"
        }
      ],
      "name": "getLotteryInfo",
      "outputs": [
        {
          "components": [
            {
              "internalType": "uint256",
              "name": "startTime",
              "type": "uint256"
            },
            {
              "internalType": "uint256",
              "name": "endTime",
              "type": "uint256"
            },
            {
              "internalType": "uint256",
              "name": "prizePool",
              "type": "uint256"
            },
            {
              "internalType": "uint256",
              "name": "totalTickets",
              "type": "uint256"
            },
            {
              "internalType": "bool",
              "name": "isActive",
              "type": "bool"
            },
            {
              "internalType": "bool",
              "name": "isDrawn",
              "type": "bool"
            },
            {
              "internalType": "uint256",
              "name": "winningNumber",
              "type": "uint256"
            },
            {
              "internalType": "address",
              "name": "winner",
              "type": "address"
            },
            {
              "internalType": "uint256[]",
              "name": "tickets",
              "type": "uint256[]"
            }
          ],
          "internalType": "struct Lottery.LotteryInfo",
          "name": "",
          "type": "tuple"
        }
      ],
      "stateMutability": "view",
      "type": "function"
    },
    {
      "inputs": [
        {
          "internalType": "address",
          "name": "player",
          "type": "address"
        }
      ],
      "name": "getPlayerLotteries",
      "outputs": [
        {
          "internalType": "uint256[]",
          "name": "",
          "type": "uint256[]"
        }
      ],
      "stateMutability": "view",
      "type": "function"
    },
    {
      "inputs": [
        {
          "internalType": "uint256",
          "name": "lotteryId",
          "type": "uint256"
        }
      ],
      "name": "handleNoWinner",
      "outputs": [],
      "stateMutability": "nonpayable",
      "type": "function"
    },
    {
      "inputs": [
        {
          "internalType": "uint256",
          "name": "",
          "type": "uint256"
        }
      ],
      "name": "lotteries",
      "outputs": [
        {
          "internalType": "uint256",
          "name": "startTime",
          "type": "uint256"
        },
        {
          "internalType": "uint256",
          "name": "endTime",
          "type": "uint256"
        },
        {
          "internalType": "uint256",
          "name": "prizePool",
          "type": "uint256"
        },
        {
          "internalType": "uint256",
          "name": "totalTickets",
          "type": "uint256"
        },
        {
          "internalType": "bool",
          "name": "isActive",
          "type": "bool"
        },
        {
          "internalType": "bool",
          "name": "isDrawn",
          "type": "bool"
        },
        {
          "internalType": "uint256",
          "name": "winningNumber",
          "type": "uint256"
        },
        {
          "internalType": "address",
          "name": "winner",
          "type": "address"
        }
      ],
      "stateMutability": "view",
      "type": "function"
    },
    {
      "inputs": [],
      "name": "owner",
      "outputs": [
        {
          "internalType": "address",
          "name": "",
          "type": "address"
        }
      ],
      "stateMutability": "view",
      "type": "function"
    },
    {
      "inputs": [],
      "name": "pendingDraw",
      "outputs": [
        {
          "internalType": "bool",
          "name": "",
          "type": "bool"
        }
      ],
      "stateMutability": "view",
      "type": "function"
    },
    {
      "inputs": [
        {
          "internalType": "address",
          "name": "",
          "type": "address"
        },
        {
          "internalType": "uint256",
          "name": "",
          "type": "uint256"
        }
      ],
      "name": "playerLotteries",
      "outputs": [
        {
          "internalType": "uint256",
          "name": "",
          "type": "uint256"
        }
      ],
      "stateMutability": "view",
      "type": "function"
    },
    {
      "inputs": [
        {
          "internalType": "uint256",
          "name": "ticketCount",
          "type": "uint256"
        }
      ],
      "name": "purchaseTickets",
      "outputs": [],
      "stateMutability": "nonpayable",
      "type": "function"
    },
    {
      "inputs": [
        {
          "internalType": "uint256",
          "name": "requestId",
          "type": "uint256"
        },
        {
          "internalType": "uint256[]",
          "name": "randomWords",
          "type": "uint256[]"
        }
      ],
      "name": "rawFulfillRandomWords",
      "outputs": [],
      "stateMutability": "nonpayable",
      "type": "function"
    },
    {
      "inputs": [],
      "name": "renounceOwnership",
      "outputs": [],
      "stateMutability": "nonpayable",
      "type": "function"
    },
    {
      "inputs": [
        {
          "internalType": "uint256",
          "name": "",
          "type": "uint256"
        }
      ],
      "name": "requestIdToLotteryId",
      "outputs": [
        {
          "internalType": "uint256",
          "name": "",
          "type": "uint256"
        }
      ],
      "stateMutability": "view",
      "type": "function"
    },
    {
      "inputs": [],
      "name": "ticketPrice",
      "outputs": [
        {
          "internalType": "uint256",
          "name": "",
          "type": "uint256"
        }
      ],
      "stateMutability": "view",
      "type": "function"
    },
    {
      "inputs": [
        {
          "internalType": "address",
          "name": "newOwner",
          "type": "address"
        }
      ],
      "name": "transferOwnership",
      "outputs": [],
      "stateMutability": "nonpayable",
      "type": "function"
    },
    {
      "inputs": [
        {
          "internalType": "uint256",
          "name": "newPrice",
          "type": "uint256"
        }
      ],
      "name": "updateTicketPrice",
      "outputs": [],
      "stateMutability": "nonpayable",
      "type": "function"
    },
    {
      "inputs": [],
      "name": "vrfCoordinator",
      "outputs": [
        {
          "internalType": "contract IVRFCoordinatorV2",
          "name": "",
          "type": "address"
        }
      ],
      "stateMutability": "view",
      "type": "function"
    },
    {
      "inputs": [],
      "name": "withdrawHouseEdge",
      "outputs": [],
      "stateMutability": "nonpayable",
      "type": "function"
    }
  ],
  "bytecode": "0x610100604052686c6b935b8bbd4000006003553480156200001f57600080fd5b5060405162001d6338038062001d638339810160408190526200004291620002b9565b6200004d336200008a565b600180556001600160a01b03808516608052831660a05260c08290526001600160401b03811660e05262000080620000da565b5050505062000369565b600080546001600160a01b038381166001600160a01b0319831681178455604051919092169283917f8be0079c531659141344cd1fd0a4f28419497f9722a3daafe3b4186f6b6457e09190a35050565b60028054906000620000ec8362000331565b9091555042905060006200010462015180836200034d565b6040805161012081018252848152602080820184815260008385018181526060850182815260016080870181815260a0880185815260c0890186815260e08a018781528b51888152808b018d52610100808d01918252600280548b526004808e529e909a208d5181559a51968b01969096559651978901979097559351600388015590519886018054915161ffff1990921699151561ff001916999099179015159091021790965594516005830155516006820180546001600160a01b0319166001600160a01b03909216919091179055925180519495509193620001f0926007850192019062000235565b505060025460408051858152602081018590529192507fbcab9af3175c8a9d53b9308a82ee378a84c65b0c22e3dfea2afac802c73a078a910160405180910390a25050565b82805482825590600052602060002090810192821562000273579160200282015b828111156200027357825182559160200191906001019062000256565b506200028192915062000285565b5090565b5b8082111562000281576000815560010162000286565b80516001600160a01b0381168114620002b457600080fd5b919050565b60008060008060808587031215620002d057600080fd5b620002db856200029c565b9350620002eb602086016200029c565b6040860151606087015191945092506001600160401b03811681146200031057600080fd5b939692955090935050565b634e487b7160e01b600052601160045260246000fd5b6000600182016200034657620003466200031b565b5060010190565b808201808211156200036357620003636200031b565b92915050565b60805160a05160c05160e05161198f620003d4600039600061148d0152600061145c015260008181610348015281816105d90152818161087401528181610c9e01528181610f990152611060015260008181610321015281816103ad01526114cc015261198f6000f3fe608060405234801561001057600080fd5b50600436106101425760003560e01c806388ed5d64116100b8578063a3e56fa81161007c578063a3e56fa81461031c578063c3dfdae614610343578063c6b749e21461036a578063f02137c814610374578063f2fde38b14610387578063fad9f16f1461039a57600080fd5b806388ed5d641461029f5780638da5cb5b146102bc5780638daaaa2f146102e1578063916f04ff146102e9578063a12776001461030957600080fd5b80634555230d1161010a5780634555230d1461023b5780636be4097c1461024e578063715018a61461025757806376b3c8a81461025f578063827c68c51461027f57806385f07bbe1461023357600080fd5b80631209b1f6146101475780631398e076146101635780631fe543e31461020b5780633f5b23d4146102205780634411b3eb14610233575b600080fd5b61015060035481565b6040519081526020015b60405180910390f35b6101c36101713660046115e3565b6004602081905260009182526040909120805460018201546002830154600384015494840154600585015460069095015493959294919360ff808316936101009093041691906001600160a01b031688565b60408051988952602089019790975295870194909452606086019290925215156080850152151560a084015260c08301526001600160a01b031660e08201526101000161015a565b61021e610219366004611612565b6103a2565b005b61021e61022e3660046115e3565b610750565b610150603281565b6101506102493660046116f8565b610945565b61015060025481565b61021e610976565b61027261026d3660046115e3565b61098a565b60405161015a919061175d565b61029261028d3660046117f2565b610abc565b60405161015a9190611814565b6006546102ac9060ff1681565b604051901515815260200161015a565b6000546001600160a01b03165b6040516001600160a01b03909116815260200161015a565b610150600581565b6101506102f73660046115e3565b60056020526000908152604090205481565b61021e6103173660046115e3565b610b28565b6102c97f000000000000000000000000000000000000000000000000000000000000000081565b6102c97f000000000000000000000000000000000000000000000000000000000000000081565b6101506201518081565b61021e6103823660046115e3565b610e5f565b61021e6103953660046117f2565b610f03565b61021e610f79565b336001600160a01b037f0000000000000000000000000000000000000000000000000000000000000000161461042e5760405162461bcd60e51b815260206004820152602660248201527f4c6f74746572793a204f6e6c792056524620636f6f7264696e61746f722063616044820152651b8818d85b1b60d21b60648201526084015b60405180910390fd5b6000828152600560205260408120549081900361048d5760405162461bcd60e51b815260206004820152601b60248201527f4c6f74746572793a20496e76616c6964207265717565737420494400000000006044820152606401610425565b600081815260046020819052604090912090810154610100900460ff16156104f05760405162461bcd60e51b81526020600482015260166024820152752637ba3a32b93c9d1020b63932b0b23c90323930bbb760511b6044820152606401610425565b60048101805461ff0019166101001790558251839060009061051457610514611858565b6020026020010151816005018190555060008160030154826005015461053a9190611884565b9050600082600701828154811061055357610553611858565b60009182526020822001546006850180546001600160a01b0319166001600160a01b0383161790556002850154909250606490610592906005906118ae565b61059c91906118cb565b905060008185600201546105b091906118df565b60405163a9059cbb60e01b81526001600160a01b038581166004830152602482018390529192507f00000000000000000000000000000000000000000000000000000000000000009091169063a9059cbb906044016020604051808303816000875af1158015610624573d6000803e3d6000fd5b505050506040513d601f19601f8201168201806040525081019061064891906118f2565b6106945760405162461bcd60e51b815260206004820152601e60248201527f4c6f74746572793a205072697a65207472616e73666572206661696c656400006044820152606401610425565b826001600160a01b0316867f053824fea93a5bfa4a0f7c297cb968fb010bb82e0647e66e624216ab6c46d5e48760050154846040516106dd929190918252602082015260400190565b60405180910390a3826001600160a01b0316867f4aa95f981a8337cb337de335b965507da0879c3b49f799d20058e913f5ad2c268360405161072191815260200190565b60405180910390a360065460ff1615610746576006805460ff1916905561074661115c565b5050505050505050565b6107586112b1565b600081815260046020819052604090912090810154610100900460ff166107c15760405162461bcd60e51b815260206004820152601e60248201527f4c6f74746572793a204c6f7474657279206e6f7420647261776e2079657400006044820152606401610425565b60068101546001600160a01b0316156108155760405162461bcd60e51b81526020600482015260166024820152754c6f74746572793a2057696e6e65722065786973747360501b6044820152606401610425565b60005b816003015481101561093957600082600701828154811061083b5761083b611858565b60009182526020909120015460035460405163a9059cbb60e01b81526001600160a01b03808416600483015260248201929092529192507f0000000000000000000000000000000000000000000000000000000000000000169063a9059cbb906044016020604051808303816000875af11580156108bd573d6000803e3d6000fd5b505050506040513d601f19601f820116820180604052508101906108e191906118f2565b6109265760405162461bcd60e51b8152602060048201526016602482015275131bdd1d195c9e4e881499599d5b990819985a5b195960521b6044820152606401610425565b508061093181611914565b915050610818565b50600060029091015550565b6007602052816000526040600020818154811061096157600080fd5b90600052602060002001600091509150505481565b61097e6112b1565b610988600061130b565b565b6109e6604051806101200160405280600081526020016000815260200160008152602001600081526020016000151581526020016000151581526020016000815260200160006001600160a01b03168152602001606081525090565b60008281526004602081815260409283902083516101208101855281548152600182015481840152600282015481860152600382015460608201529281015460ff808216151560808601526101009182900416151560a0850152600582015460c085015260068201546001600160a01b031660e08501526007820180548651818602810186019097528087529495929491860193909190830182828015610aac57602002820191906000526020600020905b815481526020019060010190808311610a98575b5050505050815250509050919050565b6001600160a01b038116600090815260076020908152604091829020805483518184028101840190945280845260609392830182828015610b1c57602002820191906000526020600020905b815481526020019060010190808311610b08575b50505050509050919050565b610b3061135b565b60008111610b935760405162461bcd60e51b815260206004820152602a60248201527f4c6f74746572793a204d757374207075726368617365206174206c65617374206044820152691bdb99481d1a58dad95d60b21b6064820152608401610425565b60025460009081526004602081905260409091209081015460ff16610c095760405162461bcd60e51b815260206004820152602660248201527f4c6f74746572793a2043757272656e74206c6f7474657279206973206e6f742060448201526561637469766560d01b6064820152608401610425565b6032828260030154610c1b919061192d565b1115610c695760405162461bcd60e51b815260206004820181905260248201527f4c6f74746572793a204d6178696d756d20706c617965727320726561636865646044820152606401610425565b600082600354610c7991906118ae565b6040516323b872dd60e01b8152336004820152306024820152604481018290529091507f00000000000000000000000000000000000000000000000000000000000000006001600160a01b0316906323b872dd906064016020604051808303816000875af1158015610cef573d6000803e3d6000fd5b505050506040513d601f19601f82011682018060405250810190610d1391906118f2565b610d5f5760405162461bcd60e51b815260206004820152601e60248201527f4c6f74746572793a20546f6b656e207472616e73666572206661696c656400006044820152606401610425565b60005b83811015610d9657600783018054600181018255600091825260209091203391015580610d8e81611914565b915050610d62565b5082826003016000828254610dab919061192d565b9250508190555080826002016000828254610dc6919061192d565b90915550503360008181526007602090815260408083206002805482546001810184559286529484902090910193909355915491518681527fdbaaf4c87ce30816c961a81d110622a3227ede77953d4383d514ff88ab2e0fd3910160405180910390a360328260030154101580610e41575081600101544210155b15610e5157610e516002546113b4565b5050610e5c60018055565b50565b610e676112b1565b60008111610ec85760405162461bcd60e51b815260206004820152602860248201527f4c6f74746572793a205072696365206d7573742062652067726561746572207460448201526768616e207a65726f60c01b6064820152608401610425565b60038190556040518181527f7429795511c1ec5ebcc0e6839095ec18f13fce25cdc7c90da9d8a016584a1dbe9060200160405180910390a150565b610f0b6112b1565b6001600160a01b038116610f705760405162461bcd60e51b815260206004820152602660248201527f4f776e61626c653a206e6577206f776e657220697320746865207a65726f206160448201526564647265737360d01b6064820152608401610425565b610e5c8161130b565b610f816112b1565b6040516370a0823160e01b81523060048201526000907f00000000000000000000000000000000000000000000000000000000000000006001600160a01b0316906370a0823190602401602060405180830381865afa158015610fe8573d6000803e3d6000fd5b505050506040513d601f19601f8201168201806040525081019061100c9190611940565b90506000811161105e5760405162461bcd60e51b815260206004820152601e60248201527f4c6f74746572793a204e6f20746f6b656e7320746f20776974686472617700006044820152606401610425565b7f00000000000000000000000000000000000000000000000000000000000000006001600160a01b031663a9059cbb61109f6000546001600160a01b031690565b6040516001600160e01b031960e084901b1681526001600160a01b039091166004820152602481018490526044016020604051808303816000875af11580156110ec573d6000803e3d6000fd5b505050506040513d601f19601f8201168201806040525081019061111091906118f2565b610e5c5760405162461bcd60e51b815260206004820152601a60248201527f4c6f74746572793a205769746864726177616c206661696c65640000000000006044820152606401610425565b6002805490600061116c83611914565b909155504290506000611182620151808361192d565b6040805161012081018252848152602080820184815260008385018181526060850182815260016080870181815260a0880185815260c0890186815260e08a018781528b51888152808b018d52610100808d01918252600280548b526004808e529e909a208d5181559a51968b01969096559651978901979097559351600388015590519886018054915161ffff1990921699151561ff001916999099179015159091021790965594516005830155516006820180546001600160a01b0319166001600160a01b0390921691909117905592518051949550919361126c9260078501920190611583565b505060025460408051858152602081018590529192507fbcab9af3175c8a9d53b9308a82ee378a84c65b0c22e3dfea2afac802c73a078a910160405180910390a25050565b6000546001600160a01b031633146109885760405162461bcd60e51b815260206004820181905260248201527f4f776e61626c653a2063616c6c6572206973206e6f7420746865206f776e65726044820152606401610425565b600080546001600160a01b038381166001600160a01b0319831681178455604051919092169283917f8be0079c531659141344cd1fd0a4f28419497f9722a3daafe3b4186f6b6457e09190a35050565b6002600154036113ad5760405162461bcd60e51b815260206004820152601f60248201527f5265656e7472616e637947756172643a207265656e7472616e742063616c6c006044820152606401610425565b6002600155565b60008181526004602081905260409091209081015460ff1680156113e257506004810154610100900460ff16155b61142e5760405162461bcd60e51b815260206004820152601e60248201527f4c6f74746572793a20496e76616c6964206c6f747465727920737461746500006044820152606401610425565b6004818101805460ff199081169091556006805490911660019081179091556040516305d3b1d360e41b81527f00000000000000000000000000000000000000000000000000000000000000009281019290925267ffffffffffffffff7f000000000000000000000000000000000000000000000000000000000000000016602483015260036044830152620186a0606483015260848201526000907f00000000000000000000000000000000000000000000000000000000000000006001600160a01b031690635d3b1d309060a4016020604051808303816000875af115801561151d573d6000803e3d6000fd5b505050506040513d601f19601f820116820180604052508101906115419190611940565b60008181526005602052604080822086905551919250829185917f600253eae67a5c51c82a7123372e8644f16009c6304e18f844cf86fdc40c24d791a3505050565b8280548282559060005260206000209081019282156115be579160200282015b828111156115be5782518255916020019190600101906115a3565b506115ca9291506115ce565b5090565b5b808211156115ca57600081556001016115cf565b6000602082840312156115f557600080fd5b5035919050565b634e487b7160e01b600052604160045260246000fd5b6000806040838503121561162557600080fd5b8235915060208084013567ffffffffffffffff8082111561164557600080fd5b818601915086601f83011261165957600080fd5b81358181111561166b5761166b6115fc565b8060051b604051601f19603f83011681018181108582111715611690576116906115fc565b6040529182528482019250838101850191898311156116ae57600080fd5b938501935b828510156116cc578435845293850193928501926116b3565b8096505050505050509250929050565b80356001600160a01b03811681146116f357600080fd5b919050565b6000806040838503121561170b57600080fd5b611714836116dc565b946020939093013593505050565b600081518084526020808501945080840160005b8381101561175257815187529582019590820190600101611736565b509495945050505050565b60208152815160208201526020820151604082015260408201516060820152606082015160808201526000608083015161179b60a084018215159052565b5060a083015180151560c08401525060c083015160e083015260e08301516101006117d0818501836001600160a01b03169052565b8401516101208481015290506117ea610140840182611722565b949350505050565b60006020828403121561180457600080fd5b61180d826116dc565b9392505050565b6020808252825182820181905260009190848201906040850190845b8181101561184c57835183529284019291840191600101611830565b50909695505050505050565b634e487b7160e01b600052603260045260246000fd5b634e487b7160e01b600052601260045260246000fd5b6000826118935761189361186e565b500690565b634e487b7160e01b600052601160045260246000fd5b80820281158282048414176118c5576118c5611898565b92915050565b6000826118da576118da61186e565b500490565b818103818111156118c5576118c5611898565b60006020828403121561190457600080fd5b8151801515811461180d57600080fd5b60006001820161192657611926611898565b5060010190565b808201808211156118c5576118c5611898565b60006020828403121561195257600080fd5b505191905056fea264697066735822122076a31378c739c7428e1d8c8b3b989ffc2f1a0b7e5ce77d0c794e673b3e27781364736f6c63430008130033",
  "linkReferences": {},
  "deployedLinkReferences": {}
}