{
  "_format": "hh-sol-artifact-1",
  "contractName": "Lottery",
  "sourceName": "contracts/Lottery.sol",
  "abi": [
    {
      "inputs": [
        {
          "internalType": "address",
          "name": "_vrfCoordinator",
          "type": "address"
        },
        {
          "internalType": "address",
          "name": "_gameToken",
          "type": "address"
        },
        {
          "internalType": "bytes32",
          "name": "_keyHash",
          "type": "bytes32"
        },
        {
          "internalType": "uint64",
          "name": "_subscriptionId",
          "type": "uint64"
        }
      ],
      "stateMutability": "nonpayable",
      "type": "constructor"
    },
    {
      "anonymous": false,
      "inputs": [
        {
          "indexed": true,
          "internalType": "uint256",
          "name": "lotteryId",
          "type": "uint256"
        },
        {
          "indexed": false,
          "internalType": "uint256",
          "name": "startTime",
          "type": "uint256"
        },
        {
          "indexed": false,
          "internalType": "uint256",
          "name": "endTime",
          "type": "uint256"
        }
      ],
      "name": "LotteryCreated",
      "type": "event"
    },
    {
      "anonymous": false,
      "inputs": [
        {
          "indexed": true,
          "internalType": "uint256",
          "name": "lotteryId",
          "type": "uint256"
        },
        {
          "indexed": true,
          "internalType": "uint256",
          "name": "requestId",
          "type": "uint256"
        }
      ],
      "name": "LotteryDrawRequested",
      "type": "event"
    },
    {
      "anonymous": false,
      "inputs": [
        {
          "indexed": true,
          "internalType": "uint256",
          "name": "lotteryId",
          "type": "uint256"
        },
        {
          "indexed": true,
          "internalType": "address",
          "name": "winner",
          "type": "address"
        },
        {
          "indexed": false,
          "internalType": "uint256",
          "name": "winningNumber",
          "type": "uint256"
        },
        {
          "indexed": false,
          "internalType": "uint256",
          "name": "prize",
          "type": "uint256"
        }
      ],
      "name": "LotteryDrawn",
      "type": "event"
    },
    {
      "anonymous": false,
      "inputs": [
        {
          "indexed": true,
          "internalType": "address",
          "name": "previousOwner",
          "type": "address"
        },
        {
          "indexed": true,
          "internalType": "address",
          "name": "newOwner",
          "type": "address"
        }
      ],
      "name": "OwnershipTransferred",
      "type": "event"
    },
    {
      "anonymous": false,
      "inputs": [
        {
          "indexed": true,
          "internalType": "uint256",
          "name": "lotteryId",
          "type": "uint256"
        },
        {
          "indexed": true,
          "internalType": "address",
          "name": "winner",
          "type": "address"
        },
        {
          "indexed": false,
          "internalType": "uint256",
          "name": "amount",
          "type": "uint256"
        }
      ],
      "name": "PrizeClaimed",
      "type": "event"
    },
    {
      "anonymous": false,
      "inputs": [
        {
          "indexed": false,
          "internalType": "uint256",
          "name": "newPrice",
          "type": "uint256"
        }
      ],
      "name": "TicketPriceUpdated",
      "type": "event"
    },
    {
      "anonymous": false,
      "inputs": [
        {
          "indexed": true,
          "internalType": "uint256",
          "name": "lotteryId",
          "type": "uint256"
        },
        {
          "indexed": true,
          "internalType": "address",
          "name": "player",
          "type": "address"
        },
        {
          "indexed": false,
          "internalType": "uint256",
          "name": "ticketCount",
          "type": "uint256"
        }
      ],
      "name": "TicketPurchased",
      "type": "event"
    },
    {
      "inputs": [],
      "name": "DRAW_INTERVAL",
      "outputs": [
        {
          "internalType": "uint256",
          "name": "",
          "type": "uint256"
        }
      ],
      "stateMutability": "view",
      "type": "function"
    },
    {
      "inputs": [],
      "name": "HOUSE_EDGE",
      "outputs": [
        {
          "internalType": "uint256",
          "name": "",
          "type": "uint256"
        }
      ],
      "stateMutability": "view",
      "type": "function"
    },
    {
      "inputs": [],
      "name": "MAX_PLAYERS",
      "outputs": [
        {
          "internalType": "uint256",
          "name": "",
          "type": "uint256"
        }
      ],
      "stateMutability": "view",
      "type": "function"
    },
    {
      "inputs": [],
      "name": "MIN_PLAYERS",
      "outputs": [
        {
          "internalType": "uint256",
          "name": "",
          "type": "uint256"
        }
      ],
      "stateMutability": "view",
      "type": "function"
    },
    {
      "inputs": [],
      "name": "currentLotteryId",
      "outputs": [
        {
          "internalType": "uint256",
          "name": "",
          "type": "uint256"
        }
      ],
      "stateMutability": "view",
      "type": "function"
    },
    {
      "inputs": [],
      "name": "gameToken",
      "outputs": [
        {
          "internalType": "contract IGameToken",
          "name": "",
          "type": "address"
        }
      ],
      "stateMutability": "view",
      "type": "function"
    },
    {
      "inputs": [
        {
          "internalType": "uint256",
          "name": "lotteryId",
          "type": "uint256"
        }
      ],
      "name": "getLotteryInfo",
      "outputs": [
        {
          "components": [
            {
              "internalType": "uint256",
              "name": "startTime",
              "type": "uint256"
            },
            {
              "internalType": "uint256",
              "name": "endTime",
              "type": "uint256"
            },
            {
              "internalType": "uint256",
              "name": "prizePool",
              "type": "uint256"
            },
            {
              "internalType": "uint256",
              "name": "totalTickets",
              "type": "uint256"
            },
            {
              "internalType": "bool",
              "name": "isActive",
              "type": "bool"
            },
            {
              "internalType": "bool",
              "name": "isDrawn",
              "type": "bool"
            },
            {
              "internalType": "uint256",
              "name": "winningNumber",
              "type": "uint256"
            },
            {
              "internalType": "address",
              "name": "winner",
              "type": "address"
            },
            {
              "internalType": "uint256[]",
              "name": "tickets",
              "type": "uint256[]"
            }
          ],
          "internalType": "struct Lottery.LotteryInfo",
          "name": "",
          "type": "tuple"
        }
      ],
      "stateMutability": "view",
      "type": "function"
    },
    {
      "inputs": [
        {
          "internalType": "address",
          "name": "player",
          "type": "address"
        }
      ],
      "name": "getPlayerLotteries",
      "outputs": [
        {
          "internalType": "uint256[]",
          "name": "",
          "type": "uint256[]"
        }
      ],
      "stateMutability": "view",
      "type": "function"
    },
    {
      "inputs": [
        {
          "internalType": "uint256",
          "name": "lotteryId",
          "type": "uint256"
        }
      ],
      "name": "handleNoWinner",
      "outputs": [],
      "stateMutability": "nonpayable",
      "type": "function"
    },
    {
      "inputs": [
        {
          "internalType": "uint256",
          "name": "",
          "type": "uint256"
        }
      ],
      "name": "lotteries",
      "outputs": [
        {
          "internalType": "uint256",
          "name": "startTime",
          "type": "uint256"
        },
        {
          "internalType": "uint256",
          "name": "endTime",
          "type": "uint256"
        },
        {
          "internalType": "uint256",
          "name": "prizePool",
          "type": "uint256"
        },
        {
          "internalType": "uint256",
          "name": "totalTickets",
          "type": "uint256"
        },
        {
          "internalType": "bool",
          "name": "isActive",
          "type": "bool"
        },
        {
          "internalType": "bool",
          "name": "isDrawn",
          "type": "bool"
        },
        {
          "internalType": "uint256",
          "name": "winningNumber",
          "type": "uint256"
        },
        {
          "internalType": "address",
          "name": "winner",
          "type": "address"
        }
      ],
      "stateMutability": "view",
      "type": "function"
    },
    {
      "inputs": [],
      "name": "owner",
      "outputs": [
        {
          "internalType": "address",
          "name": "",
          "type": "address"
        }
      ],
      "stateMutability": "view",
      "type": "function"
    },
    {
      "inputs": [
        {
          "internalType": "address",
          "name": "",
          "type": "address"
        },
        {
          "internalType": "uint256",
          "name": "",
          "type": "uint256"
        }
      ],
      "name": "playerLotteries",
      "outputs": [
        {
          "internalType": "uint256",
          "name": "",
          "type": "uint256"
        }
      ],
      "stateMutability": "view",
      "type": "function"
    },
    {
      "inputs": [
        {
          "internalType": "uint256",
          "name": "ticketCount",
          "type": "uint256"
        }
      ],
      "name": "purchaseTickets",
      "outputs": [],
      "stateMutability": "nonpayable",
      "type": "function"
    },
    {
      "inputs": [
        {
          "internalType": "uint256",
          "name": "requestId",
          "type": "uint256"
        },
        {
          "internalType": "uint256[]",
          "name": "randomWords",
          "type": "uint256[]"
        }
      ],
      "name": "rawFulfillRandomWords",
      "outputs": [],
      "stateMutability": "nonpayable",
      "type": "function"
    },
    {
      "inputs": [],
      "name": "renounceOwnership",
      "outputs": [],
      "stateMutability": "nonpayable",
      "type": "function"
    },
    {
      "inputs": [
        {
          "internalType": "uint256",
          "name": "",
          "type": "uint256"
        }
      ],
      "name": "requestIdToLotteryId",
      "outputs": [
        {
          "internalType": "uint256",
          "name": "",
          "type": "uint256"
        }
      ],
      "stateMutability": "view",
      "type": "function"
    },
    {
      "inputs": [],
      "name": "ticketPrice",
      "outputs": [
        {
          "internalType": "uint256",
          "name": "",
          "type": "uint256"
        }
      ],
      "stateMutability": "view",
      "type": "function"
    },
    {
      "inputs": [
        {
          "internalType": "address",
          "name": "newOwner",
          "type": "address"
        }
      ],
      "name": "transferOwnership",
      "outputs": [],
      "stateMutability": "nonpayable",
      "type": "function"
    },
    {
      "inputs": [
        {
          "internalType": "uint256",
          "name": "newPrice",
          "type": "uint256"
        }
      ],
      "name": "updateTicketPrice",
      "outputs": [],
      "stateMutability": "nonpayable",
      "type": "function"
    },
    {
      "inputs": [],
      "name": "vrfCoordinator",
      "outputs": [
        {
          "internalType": "contract IVRFCoordinatorV2",
          "name": "",
          "type": "address"
        }
      ],
      "stateMutability": "view",
      "type": "function"
    },
    {
      "inputs": [],
      "name": "withdrawHouseEdge",
      "outputs": [],
      "stateMutability": "nonpayable",
      "type": "function"
    }
  ],
  "bytecode": "0x610100604052662386f26fc100006003553480156200001d57600080fd5b5060405162001d1c38038062001d1c8339810160408190526200004091620002b7565b6200004b3362000088565b600180556001600160a01b03808516608052831660a05260c08290526001600160401b03811660e0526200007e620000d8565b5050505062000367565b600080546001600160a01b038381166001600160a01b0319831681178455604051919092169283917f8be0079c531659141344cd1fd0a4f28419497f9722a3daafe3b4186f6b6457e09190a35050565b60028054906000620000ea836200032f565b9091555042905060006200010262015180836200034b565b6040805161012081018252848152602080820184815260008385018181526060850182815260016080870181815260a0880185815260c0890186815260e08a018781528b51888152808b018d52610100808d01918252600280548b526004808e529e909a208d5181559a51968b01969096559651978901979097559351600388015590519886018054915161ffff1990921699151561ff001916999099179015159091021790965594516005830155516006820180546001600160a01b0319166001600160a01b03909216919091179055925180519495509193620001ee926007850192019062000233565b505060025460408051858152602081018590529192507fbcab9af3175c8a9d53b9308a82ee378a84c65b0c22e3dfea2afac802c73a078a910160405180910390a25050565b82805482825590600052602060002090810192821562000271579160200282015b828111156200027157825182559160200191906001019062000254565b506200027f92915062000283565b5090565b5b808211156200027f576000815560010162000284565b80516001600160a01b0381168114620002b257600080fd5b919050565b60008060008060808587031215620002ce57600080fd5b620002d9856200029a565b9350620002e9602086016200029a565b6040860151606087015191945092506001600160401b03811681146200030e57600080fd5b939692955090935050565b634e487b7160e01b600052601160045260246000fd5b60006001820162000344576200034462000319565b5060010190565b8082018082111562000361576200036162000319565b92915050565b60805160a05160c05160e05161194a620003d260003960006112e9015260006112b8015260008181610328015281816105b90152818161083701528181610c6101528181610f5c01526110230152600081816103010152818161038d015261132a015261194a6000f3fe608060405234801561001057600080fd5b50600436106101375760003560e01c806385f07bbe116100b8578063a3e56fa81161007c578063a3e56fa8146102fc578063c3dfdae614610323578063c6b749e21461034a578063f02137c814610354578063f2fde38b14610367578063fad9f16f1461037a57600080fd5b806385f07bbe146102945780638da5cb5b1461029c5780638daaaa2f146102c1578063916f04ff146102c9578063a1277600146102e957600080fd5b80634555230d116100ff5780634555230d146102305780636be4097c14610243578063715018a61461024c57806376b3c8a814610254578063827c68c51461027457600080fd5b80631209b1f61461013c5780631398e076146101585780631fe543e3146102005780633f5b23d4146102155780634411b3eb14610228575b600080fd5b61014560035481565b6040519081526020015b60405180910390f35b6101b861016636600461159e565b6004602081905260009182526040909120805460018201546002830154600384015494840154600585015460069095015493959294919360ff808316936101009093041691906001600160a01b031688565b60408051988952602089019790975295870194909452606086019290925215156080850152151560a084015260c08301526001600160a01b031660e08201526101000161014f565b61021361020e3660046115cd565b610382565b005b61021361022336600461159e565b610713565b610145606481565b61014561023e3660046116b3565b610908565b61014560025481565b610213610939565b61026761026236600461159e565b61094d565b60405161014f9190611718565b6102876102823660046117ad565b610a7f565b60405161014f91906117cf565b610145600381565b6000546001600160a01b03165b6040516001600160a01b03909116815260200161014f565b610145600581565b6101456102d736600461159e565b60056020526000908152604090205481565b6102136102f736600461159e565b610aeb565b6102a97f000000000000000000000000000000000000000000000000000000000000000081565b6102a97f000000000000000000000000000000000000000000000000000000000000000081565b6101456201518081565b61021361036236600461159e565b610e22565b6102136103753660046117ad565b610ec6565b610213610f3c565b336001600160a01b037f0000000000000000000000000000000000000000000000000000000000000000161461040e5760405162461bcd60e51b815260206004820152602660248201527f4c6f74746572793a204f6e6c792056524620636f6f7264696e61746f722063616044820152651b8818d85b1b60d21b60648201526084015b60405180910390fd5b6000828152600560205260408120549081900361046d5760405162461bcd60e51b815260206004820152601b60248201527f4c6f74746572793a20496e76616c6964207265717565737420494400000000006044820152606401610405565b600081815260046020819052604090912090810154610100900460ff16156104d05760405162461bcd60e51b81526020600482015260166024820152752637ba3a32b93c9d1020b63932b0b23c90323930bbb760511b6044820152606401610405565b60048101805461ff001916610100179055825183906000906104f4576104f4611813565b6020026020010151816005018190555060008160030154826005015461051a919061183f565b9050600082600701828154811061053357610533611813565b60009182526020822001546006850180546001600160a01b0319166001600160a01b038316179055600285015490925060649061057290600590611869565b61057c9190611886565b90506000818560020154610590919061189a565b60405163a9059cbb60e01b81526001600160a01b038581166004830152602482018390529192507f00000000000000000000000000000000000000000000000000000000000000009091169063a9059cbb906044016020604051808303816000875af1158015610604573d6000803e3d6000fd5b505050506040513d601f19601f8201168201806040525081019061062891906118ad565b6106745760405162461bcd60e51b815260206004820152601e60248201527f4c6f74746572793a205072697a65207472616e73666572206661696c656400006044820152606401610405565b826001600160a01b0316867f053824fea93a5bfa4a0f7c297cb968fb010bb82e0647e66e624216ab6c46d5e48760050154846040516106bd929190918252602082015260400190565b60405180910390a3826001600160a01b0316867f4aa95f981a8337cb337de335b965507da0879c3b49f799d20058e913f5ad2c268360405161070191815260200190565b60405180910390a35050505050505050565b61071b61111f565b600081815260046020819052604090912090810154610100900460ff166107845760405162461bcd60e51b815260206004820152601e60248201527f4c6f74746572793a204c6f7474657279206e6f7420647261776e2079657400006044820152606401610405565b60068101546001600160a01b0316156107d85760405162461bcd60e51b81526020600482015260166024820152754c6f74746572793a2057696e6e65722065786973747360501b6044820152606401610405565b60005b81600301548110156108fc5760008260070182815481106107fe576107fe611813565b60009182526020909120015460035460405163a9059cbb60e01b81526001600160a01b03808416600483015260248201929092529192507f0000000000000000000000000000000000000000000000000000000000000000169063a9059cbb906044016020604051808303816000875af1158015610880573d6000803e3d6000fd5b505050506040513d601f19601f820116820180604052508101906108a491906118ad565b6108e95760405162461bcd60e51b8152602060048201526016602482015275131bdd1d195c9e4e881499599d5b990819985a5b195960521b6044820152606401610405565b50806108f4816118cf565b9150506107db565b50600060029091015550565b6006602052816000526040600020818154811061092457600080fd5b90600052602060002001600091509150505481565b61094161111f565b61094b6000611179565b565b6109a9604051806101200160405280600081526020016000815260200160008152602001600081526020016000151581526020016000151581526020016000815260200160006001600160a01b03168152602001606081525090565b60008281526004602081815260409283902083516101208101855281548152600182015481840152600282015481860152600382015460608201529281015460ff808216151560808601526101009182900416151560a0850152600582015460c085015260068201546001600160a01b031660e08501526007820180548651818602810186019097528087529495929491860193909190830182828015610a6f57602002820191906000526020600020905b815481526020019060010190808311610a5b575b5050505050815250509050919050565b6001600160a01b038116600090815260066020908152604091829020805483518184028101840190945280845260609392830182828015610adf57602002820191906000526020600020905b815481526020019060010190808311610acb575b50505050509050919050565b610af36111c9565b60008111610b565760405162461bcd60e51b815260206004820152602a60248201527f4c6f74746572793a204d757374207075726368617365206174206c65617374206044820152691bdb99481d1a58dad95d60b21b6064820152608401610405565b60025460009081526004602081905260409091209081015460ff16610bcc5760405162461bcd60e51b815260206004820152602660248201527f4c6f74746572793a2043757272656e74206c6f7474657279206973206e6f742060448201526561637469766560d01b6064820152608401610405565b6064828260030154610bde91906118e8565b1115610c2c5760405162461bcd60e51b815260206004820181905260248201527f4c6f74746572793a204d6178696d756d20706c617965727320726561636865646044820152606401610405565b600082600354610c3c9190611869565b6040516323b872dd60e01b8152336004820152306024820152604481018290529091507f00000000000000000000000000000000000000000000000000000000000000006001600160a01b0316906323b872dd906064016020604051808303816000875af1158015610cb2573d6000803e3d6000fd5b505050506040513d601f19601f82011682018060405250810190610cd691906118ad565b610d225760405162461bcd60e51b815260206004820152601e60248201527f4c6f74746572793a20546f6b656e207472616e73666572206661696c656400006044820152606401610405565b60005b83811015610d5957600783018054600181018255600091825260209091203391015580610d51816118cf565b915050610d25565b5082826003016000828254610d6e91906118e8565b9250508190555080826002016000828254610d8991906118e8565b90915550503360008181526006602090815260408083206002805482546001810184559286529484902090910193909355915491518681527fdbaaf4c87ce30816c961a81d110622a3227ede77953d4383d514ff88ab2e0fd3910160405180910390a360038260030154101580610e04575081600101544210155b15610e1457610e14600254611222565b5050610e1f60018055565b50565b610e2a61111f565b60008111610e8b5760405162461bcd60e51b815260206004820152602860248201527f4c6f74746572793a205072696365206d7573742062652067726561746572207460448201526768616e207a65726f60c01b6064820152608401610405565b60038190556040518181527f7429795511c1ec5ebcc0e6839095ec18f13fce25cdc7c90da9d8a016584a1dbe9060200160405180910390a150565b610ece61111f565b6001600160a01b038116610f335760405162461bcd60e51b815260206004820152602660248201527f4f776e61626c653a206e6577206f776e657220697320746865207a65726f206160448201526564647265737360d01b6064820152608401610405565b610e1f81611179565b610f4461111f565b6040516370a0823160e01b81523060048201526000907f00000000000000000000000000000000000000000000000000000000000000006001600160a01b0316906370a0823190602401602060405180830381865afa158015610fab573d6000803e3d6000fd5b505050506040513d601f19601f82011682018060405250810190610fcf91906118fb565b9050600081116110215760405162461bcd60e51b815260206004820152601e60248201527f4c6f74746572793a204e6f20746f6b656e7320746f20776974686472617700006044820152606401610405565b7f00000000000000000000000000000000000000000000000000000000000000006001600160a01b031663a9059cbb6110626000546001600160a01b031690565b6040516001600160e01b031960e084901b1681526001600160a01b039091166004820152602481018490526044016020604051808303816000875af11580156110af573d6000803e3d6000fd5b505050506040513d601f19601f820116820180604052508101906110d391906118ad565b610e1f5760405162461bcd60e51b815260206004820152601a60248201527f4c6f74746572793a205769746864726177616c206661696c65640000000000006044820152606401610405565b6000546001600160a01b0316331461094b5760405162461bcd60e51b815260206004820181905260248201527f4f776e61626c653a2063616c6c6572206973206e6f7420746865206f776e65726044820152606401610405565b600080546001600160a01b038381166001600160a01b0319831681178455604051919092169283917f8be0079c531659141344cd1fd0a4f28419497f9722a3daafe3b4186f6b6457e09190a35050565b60026001540361121b5760405162461bcd60e51b815260206004820152601f60248201527f5265656e7472616e637947756172643a207265656e7472616e742063616c6c006044820152606401610405565b6002600155565b60008181526004602081905260409091209081015460ff16801561125057506004810154610100900460ff16155b61129c5760405162461bcd60e51b815260206004820152601e60248201527f4c6f74746572793a20496e76616c6964206c6f747465727920737461746500006044820152606401610405565b6004818101805460ff191690556040516305d3b1d360e41b81527f00000000000000000000000000000000000000000000000000000000000000009181019190915267ffffffffffffffff7f000000000000000000000000000000000000000000000000000000000000000016602482015260036044820152620186a06064820152600160848201526000907f00000000000000000000000000000000000000000000000000000000000000006001600160a01b031690635d3b1d309060a4016020604051808303816000875af115801561137b573d6000803e3d6000fd5b505050506040513d601f19601f8201168201806040525081019061139f91906118fb565b60008181526005602052604080822086905551919250829185917f600253eae67a5c51c82a7123372e8644f16009c6304e18f844cf86fdc40c24d791a36113e46113e9565b505050565b600280549060006113f9836118cf565b90915550429050600061140f62015180836118e8565b6040805161012081018252848152602080820184815260008385018181526060850182815260016080870181815260a0880185815260c0890186815260e08a018781528b51888152808b018d52610100808d01918252600280548b526004808e529e909a208d5181559a51968b01969096559651978901979097559351600388015590519886018054915161ffff1990921699151561ff001916999099179015159091021790965594516005830155516006820180546001600160a01b0319166001600160a01b039092169190911790559251805194955091936114f9926007850192019061153e565b505060025460408051858152602081018590529192507fbcab9af3175c8a9d53b9308a82ee378a84c65b0c22e3dfea2afac802c73a078a910160405180910390a25050565b828054828255906000526020600020908101928215611579579160200282015b8281111561157957825182559160200191906001019061155e565b50611585929150611589565b5090565b5b80821115611585576000815560010161158a565b6000602082840312156115b057600080fd5b5035919050565b634e487b7160e01b600052604160045260246000fd5b600080604083850312156115e057600080fd5b8235915060208084013567ffffffffffffffff8082111561160057600080fd5b818601915086601f83011261161457600080fd5b813581811115611626576116266115b7565b8060051b604051601f19603f8301168101818110858211171561164b5761164b6115b7565b60405291825284820192508381018501918983111561166957600080fd5b938501935b828510156116875784358452938501939285019261166e565b8096505050505050509250929050565b80356001600160a01b03811681146116ae57600080fd5b919050565b600080604083850312156116c657600080fd5b6116cf83611697565b946020939093013593505050565b600081518084526020808501945080840160005b8381101561170d578151875295820195908201906001016116f1565b509495945050505050565b60208152815160208201526020820151604082015260408201516060820152606082015160808201526000608083015161175660a084018215159052565b5060a083015180151560c08401525060c083015160e083015260e083015161010061178b818501836001600160a01b03169052565b8401516101208481015290506117a56101408401826116dd565b949350505050565b6000602082840312156117bf57600080fd5b6117c882611697565b9392505050565b6020808252825182820181905260009190848201906040850190845b81811015611807578351835292840192918401916001016117eb565b50909695505050505050565b634e487b7160e01b600052603260045260246000fd5b634e487b7160e01b600052601260045260246000fd5b60008261184e5761184e611829565b500690565b634e487b7160e01b600052601160045260246000fd5b808202811582820484141761188057611880611853565b92915050565b60008261189557611895611829565b500490565b8181038181111561188057611880611853565b6000602082840312156118bf57600080fd5b815180151581146117c857600080fd5b6000600182016118e1576118e1611853565b5060010190565b8082018082111561188057611880611853565b60006020828403121561190d57600080fd5b505191905056fea2646970667358221220911457ece4190fdb750bc63512d14397bf2b45d6a06fcb56d145f44d50493f6564736f6c63430008130033",
  "linkReferences": {},
  "deployedLinkReferences": {}
}